{
  "contractName": "ERC721Connector",
  "abi": [
    {
      "inputs": [
        {
          "internalType": "string",
          "name": "name",
          "type": "string"
        },
        {
          "internalType": "string",
          "name": "symbol",
          "type": "string"
        }
      ],
      "stateMutability": "nonpayable",
      "type": "constructor"
    },
    {
      "anonymous": false,
      "inputs": [
        {
          "indexed": true,
          "internalType": "address",
          "name": "_from",
          "type": "address"
        },
        {
          "indexed": true,
          "internalType": "address",
          "name": "_to",
          "type": "address"
        },
        {
          "indexed": true,
          "internalType": "uint256",
          "name": "_tokenId",
          "type": "uint256"
        }
      ],
      "name": "Transfer",
      "type": "event"
    },
    {
      "inputs": [
        {
          "internalType": "bytes4",
          "name": "interfaceId",
          "type": "bytes4"
        }
      ],
      "name": "_registerInterface",
      "outputs": [],
      "stateMutability": "nonpayable",
      "type": "function"
    },
    {
      "inputs": [
        {
          "internalType": "address",
          "name": "owner",
          "type": "address"
        }
      ],
      "name": "balanceOf",
      "outputs": [
        {
          "internalType": "uint256",
          "name": "",
          "type": "uint256"
        }
      ],
      "stateMutability": "view",
      "type": "function"
    },
    {
      "inputs": [],
      "name": "calcFingerPrint",
      "outputs": [
        {
          "internalType": "bytes4",
          "name": "",
          "type": "bytes4"
        }
      ],
      "stateMutability": "view",
      "type": "function"
    },
    {
      "inputs": [],
      "name": "name",
      "outputs": [
        {
          "internalType": "string",
          "name": "",
          "type": "string"
        }
      ],
      "stateMutability": "view",
      "type": "function"
    },
    {
      "inputs": [
        {
          "internalType": "uint256",
          "name": "tokenId",
          "type": "uint256"
        }
      ],
      "name": "ownerOf",
      "outputs": [
        {
          "internalType": "address",
          "name": "",
          "type": "address"
        }
      ],
      "stateMutability": "view",
      "type": "function"
    },
    {
      "inputs": [
        {
          "internalType": "bytes4",
          "name": "interfaceId",
          "type": "bytes4"
        }
      ],
      "name": "supportsInterface",
      "outputs": [
        {
          "internalType": "bool",
          "name": "",
          "type": "bool"
        }
      ],
      "stateMutability": "view",
      "type": "function"
    },
    {
      "inputs": [],
      "name": "symbol",
      "outputs": [
        {
          "internalType": "string",
          "name": "",
          "type": "string"
        }
      ],
      "stateMutability": "view",
      "type": "function"
    },
    {
      "inputs": [
        {
          "internalType": "uint256",
          "name": "index",
          "type": "uint256"
        }
      ],
      "name": "tokenByIndex",
      "outputs": [
        {
          "internalType": "uint256",
          "name": "",
          "type": "uint256"
        }
      ],
      "stateMutability": "view",
      "type": "function"
    },
    {
      "inputs": [
        {
          "internalType": "address",
          "name": "owner",
          "type": "address"
        },
        {
          "internalType": "uint256",
          "name": "index",
          "type": "uint256"
        }
      ],
      "name": "tokenOfOwnerByIndex",
      "outputs": [
        {
          "internalType": "uint256",
          "name": "",
          "type": "uint256"
        }
      ],
      "stateMutability": "view",
      "type": "function"
    },
    {
      "inputs": [],
      "name": "totalSupply",
      "outputs": [
        {
          "internalType": "uint256",
          "name": "",
          "type": "uint256"
        }
      ],
      "stateMutability": "view",
      "type": "function"
    },
    {
      "inputs": [
        {
          "internalType": "address",
          "name": "from",
          "type": "address"
        },
        {
          "internalType": "address",
          "name": "to",
          "type": "address"
        },
        {
          "internalType": "uint256",
          "name": "tokenId",
          "type": "uint256"
        }
      ],
      "name": "transferFrom",
      "outputs": [],
      "stateMutability": "nonpayable",
      "type": "function"
    }
  ],
  "bytecode": "0x60806040523480156200001157600080fd5b5060405162001beb38038062001beb833981810160405281019062000037919062000456565b8181620000596200004d620001c460201b60201c565b620001ec60201b60201c565b620000ac7f13b182f4c0e5b2efbac0efe6cf6d756c8b89f4b79c5707a043ed9ea740574ee97f7feaf19471f34a12a7eaf32d5f3090aa2260ea8624dc8a138e74e0bf0f62307618620001ec60201b60201c565b8160019081620000bd919062000726565b508060029081620000cf919062000726565b505050620001477f8a7e378434598edc36d108689a030cbc9d7d465de4f74c71bae1028eed6a881b7f3a6eb71757dfc6e784c1459d26270140c2c147d95ca985c80026fc5301c3eca17f8a7e378434598edc36d108689a030cbc9d7d465de4f74c71bae1028eed6a881b1818620001ec60201b60201c565b620001bc7f8230223f691b981717299fae9549350a0d894555723531f02108b1f522c1a7977f6da5e1284143cdd2d15038a59bde3be031250f00291d64494c12d967b3a4e0c37fc53637662700e6c65104059db8bba34439e0c32483ab7c34e3ccae52c73954951818620001ec60201b60201c565b505062000890565b60007f01ffc9a7a5cef8baa21ed3c5c0d7e23accb804b619e9333b597f47a0d84076e2905090565b63ffffffff60e01b817bffffffffffffffffffffffffffffffffffffffffffffffffffffffff19160362000257576040517f08c379a00000000000000000000000000000000000000000000000000000000081526004016200024e906200086e565b60405180910390fd5b6001600080837bffffffffffffffffffffffffffffffffffffffffffffffffffffffff19167bffffffffffffffffffffffffffffffffffffffffffffffffffffffff1916815260200190815260200160002060006101000a81548160ff02191690831515021790555050565b6000604051905090565b600080fd5b600080fd5b600080fd5b600080fd5b6000601f19601f8301169050919050565b7f4e487b7100000000000000000000000000000000000000000000000000000000600052604160045260246000fd5b6200032c82620002e1565b810181811067ffffffffffffffff821117156200034e576200034d620002f2565b5b80604052505050565b600062000363620002c3565b905062000371828262000321565b919050565b600067ffffffffffffffff821115620003945762000393620002f2565b5b6200039f82620002e1565b9050602081019050919050565b60005b83811015620003cc578082015181840152602081019050620003af565b60008484015250505050565b6000620003ef620003e98462000376565b62000357565b9050828152602081018484840111156200040e576200040d620002dc565b5b6200041b848285620003ac565b509392505050565b600082601f8301126200043b576200043a620002d7565b5b81516200044d848260208601620003d8565b91505092915050565b6000806040838503121562000470576200046f620002cd565b5b600083015167ffffffffffffffff811115620004915762000490620002d2565b5b6200049f8582860162000423565b925050602083015167ffffffffffffffff811115620004c357620004c2620002d2565b5b620004d18582860162000423565b9150509250929050565b600081519050919050565b7f4e487b7100000000000000000000000000000000000000000000000000000000600052602260045260246000fd5b600060028204905060018216806200052e57607f821691505b602082108103620005445762000543620004e6565b5b50919050565b60008190508160005260206000209050919050565b60006020601f8301049050919050565b600082821b905092915050565b600060088302620005ae7fffffffffffffffffffffffffffffffffffffffffffffffffffffffffffffffff826200056f565b620005ba86836200056f565b95508019841693508086168417925050509392505050565b6000819050919050565b6000819050919050565b60006200060762000601620005fb84620005d2565b620005dc565b620005d2565b9050919050565b6000819050919050565b6200062383620005e6565b6200063b62000632826200060e565b8484546200057c565b825550505050565b600090565b6200065262000643565b6200065f81848462000618565b505050565b5b8181101562000687576200067b60008262000648565b60018101905062000665565b5050565b601f821115620006d657620006a0816200054a565b620006ab846200055f565b81016020851015620006bb578190505b620006d3620006ca856200055f565b83018262000664565b50505b505050565b600082821c905092915050565b6000620006fb60001984600802620006db565b1980831691505092915050565b6000620007168383620006e8565b9150826002028217905092915050565b6200073182620004db565b67ffffffffffffffff8111156200074d576200074c620002f2565b5b62000759825462000515565b620007668282856200068b565b600060209050601f8311600181146200079e576000841562000789578287015190505b62000795858262000708565b86555062000805565b601f198416620007ae866200054a565b60005b82811015620007d857848901518255600182019150602085019450602081019050620007b1565b86831015620007f85784890151620007f4601f891682620006e8565b8355505b6001600288020188555050505b505050505050565b600082825260208201905092915050565b7f4552433136353a20496e76616c696420496e7465726661636500000000000000600082015250565b6000620008566019836200080d565b915062000863826200081e565b602082019050919050565b60006020820190508181036000830152620008898162000847565b9050919050565b61134b80620008a06000396000f3fe608060405234801561001057600080fd5b50600436106100a95760003560e01c80632f745c59116100715780632f745c59146101525780634f6ccce7146101825780636352211e146101b257806370a08231146101e25780638b1ccaee1461021257806395d89b4114610230576100a9565b806301ffc9a7146100ae578063068417d9146100de57806306fdde03146100fa57806318160ddd1461011857806323b872dd14610136575b600080fd5b6100c860048036038101906100c39190610b75565b61024e565b6040516100d59190610bbd565b60405180910390f35b6100f860048036038101906100f39190610b75565b6102b5565b005b610102610389565b60405161010f9190610c68565b60405180910390f35b61012061041b565b60405161012d9190610ca3565b60405180910390f35b610150600480360381019061014b9190610d48565b610428565b005b61016c60048036038101906101679190610d9b565b610438565b6040516101799190610ca3565b60405180910390f35b61019c60048036038101906101979190610ddb565b6104e8565b6040516101a99190610ca3565b60405180910390f35b6101cc60048036038101906101c79190610ddb565b610559565b6040516101d99190610e17565b60405180910390f35b6101fc60048036038101906101f79190610e32565b610680565b6040516102099190610ca3565b60405180910390f35b61021a610737565b6040516102279190610e6e565b60405180910390f35b61023861075f565b6040516102459190610c68565b60405180910390f35b6000806000837bffffffffffffffffffffffffffffffffffffffffffffffffffffffff19167bffffffffffffffffffffffffffffffffffffffffffffffffffffffff1916815260200190815260200160002060009054906101000a900460ff169050919050565b63ffffffff60e01b817bffffffffffffffffffffffffffffffffffffffffffffffffffffffff19160361031d576040517f08c379a000000000000000000000000000000000000000000000000000000000815260040161031490610ed5565b60405180910390fd5b6001600080837bffffffffffffffffffffffffffffffffffffffffffffffffffffffff19167bffffffffffffffffffffffffffffffffffffffffffffffffffffffff1916815260200190815260200160002060006101000a81548160ff02191690831515021790555050565b60606001805461039890610f24565b80601f01602080910402602001604051908101604052809291908181526020018280546103c490610f24565b80156104115780601f106103e657610100808354040283529160200191610411565b820191906000526020600020905b8154815290600101906020018083116103f457829003601f168201915b5050505050905090565b6000600680549050905090565b6104338383836107f1565b505050565b600061044383610680565b8210610484576040517f08c379a000000000000000000000000000000000000000000000000000000000815260040161047b90610fa1565b60405180910390fd5b600860008473ffffffffffffffffffffffffffffffffffffffff1673ffffffffffffffffffffffffffffffffffffffff16815260200190815260200160002082815481106104d5576104d4610fc1565b5b9060005260206000200154905092915050565b60006104f261041b565b8210610533576040517f08c379a000000000000000000000000000000000000000000000000000000000815260040161052a9061103c565b60405180910390fd5b6006828154811061054757610546610fc1565b5b90600052602060002001549050919050565b600061056482610aa6565b6105a3576040517f08c379a000000000000000000000000000000000000000000000000000000000815260040161059a906110a8565b60405180910390fd5b600073ffffffffffffffffffffffffffffffffffffffff166003600084815260200190815260200160002060009054906101000a900473ffffffffffffffffffffffffffffffffffffffff1673ffffffffffffffffffffffffffffffffffffffff1603610645576040517f08c379a000000000000000000000000000000000000000000000000000000000815260040161063c9061113a565b60405180910390fd5b6003600083815260200190815260200160002060009054906101000a900473ffffffffffffffffffffffffffffffffffffffff169050919050565b60008073ffffffffffffffffffffffffffffffffffffffff168273ffffffffffffffffffffffffffffffffffffffff16036106f0576040517f08c379a00000000000000000000000000000000000000000000000000000000081526004016106e79061113a565b60405180910390fd5b600460008373ffffffffffffffffffffffffffffffffffffffff1673ffffffffffffffffffffffffffffffffffffffff168152602001908152602001600020549050919050565b60007f01ffc9a7a5cef8baa21ed3c5c0d7e23accb804b619e9333b597f47a0d84076e2905090565b60606002805461076e90610f24565b80601f016020809104026020016040519081016040528092919081815260200182805461079a90610f24565b80156107e75780601f106107bc576101008083540402835291602001916107e7565b820191906000526020600020905b8154815290600101906020018083116107ca57829003601f168201915b5050505050905090565b600073ffffffffffffffffffffffffffffffffffffffff168273ffffffffffffffffffffffffffffffffffffffff1603610860576040517f08c379a0000000000000000000000000000000000000000000000000000000008152600401610857906111cc565b60405180910390fd5b8273ffffffffffffffffffffffffffffffffffffffff1661088082610559565b73ffffffffffffffffffffffffffffffffffffffff16146108d6576040517f08c379a00000000000000000000000000000000000000000000000000000000081526004016108cd9061125e565b60405180910390fd5b816003600083815260200190815260200160002060006101000a81548173ffffffffffffffffffffffffffffffffffffffff021916908373ffffffffffffffffffffffffffffffffffffffff1602179055506001600460008573ffffffffffffffffffffffffffffffffffffffff1673ffffffffffffffffffffffffffffffffffffffff1681526020019081526020016000205461097491906112ad565b600460008573ffffffffffffffffffffffffffffffffffffffff1673ffffffffffffffffffffffffffffffffffffffff168152602001908152602001600020819055506001600460008473ffffffffffffffffffffffffffffffffffffffff1673ffffffffffffffffffffffffffffffffffffffff16815260200190815260200160002054610a0391906112e1565b600460008473ffffffffffffffffffffffffffffffffffffffff1673ffffffffffffffffffffffffffffffffffffffff16815260200190815260200160002081905550808273ffffffffffffffffffffffffffffffffffffffff168473ffffffffffffffffffffffffffffffffffffffff167fddf252ad1be2c89b69c2b068fc378daa952ba7f163c4a11628f55a4df523b3ef60405160405180910390a4505050565b6000806003600084815260200190815260200160002060009054906101000a900473ffffffffffffffffffffffffffffffffffffffff169050600073ffffffffffffffffffffffffffffffffffffffff168173ffffffffffffffffffffffffffffffffffffffff161415915050919050565b600080fd5b60007fffffffff0000000000000000000000000000000000000000000000000000000082169050919050565b610b5281610b1d565b8114610b5d57600080fd5b50565b600081359050610b6f81610b49565b92915050565b600060208284031215610b8b57610b8a610b18565b5b6000610b9984828501610b60565b91505092915050565b60008115159050919050565b610bb781610ba2565b82525050565b6000602082019050610bd26000830184610bae565b92915050565b600081519050919050565b600082825260208201905092915050565b60005b83811015610c12578082015181840152602081019050610bf7565b60008484015250505050565b6000601f19601f8301169050919050565b6000610c3a82610bd8565b610c448185610be3565b9350610c54818560208601610bf4565b610c5d81610c1e565b840191505092915050565b60006020820190508181036000830152610c828184610c2f565b905092915050565b6000819050919050565b610c9d81610c8a565b82525050565b6000602082019050610cb86000830184610c94565b92915050565b600073ffffffffffffffffffffffffffffffffffffffff82169050919050565b6000610ce982610cbe565b9050919050565b610cf981610cde565b8114610d0457600080fd5b50565b600081359050610d1681610cf0565b92915050565b610d2581610c8a565b8114610d3057600080fd5b50565b600081359050610d4281610d1c565b92915050565b600080600060608486031215610d6157610d60610b18565b5b6000610d6f86828701610d07565b9350506020610d8086828701610d07565b9250506040610d9186828701610d33565b9150509250925092565b60008060408385031215610db257610db1610b18565b5b6000610dc085828601610d07565b9250506020610dd185828601610d33565b9150509250929050565b600060208284031215610df157610df0610b18565b5b6000610dff84828501610d33565b91505092915050565b610e1181610cde565b82525050565b6000602082019050610e2c6000830184610e08565b92915050565b600060208284031215610e4857610e47610b18565b5b6000610e5684828501610d07565b91505092915050565b610e6881610b1d565b82525050565b6000602082019050610e836000830184610e5f565b92915050565b7f4552433136353a20496e76616c696420496e7465726661636500000000000000600082015250565b6000610ebf601983610be3565b9150610eca82610e89565b602082019050919050565b60006020820190508181036000830152610eee81610eb2565b9050919050565b7f4e487b7100000000000000000000000000000000000000000000000000000000600052602260045260246000fd5b60006002820490506001821680610f3c57607f821691505b602082108103610f4f57610f4e610ef5565b5b50919050565b7f6f776e657220696e646578206973206f7574206f6620626f756e640000000000600082015250565b6000610f8b601b83610be3565b9150610f9682610f55565b602082019050919050565b60006020820190508181036000830152610fba81610f7e565b9050919050565b7f4e487b7100000000000000000000000000000000000000000000000000000000600052603260045260246000fd5b7f676c6f62616c20696e646578206973206f7574206f6620626f756e6400000000600082015250565b6000611026601c83610be3565b915061103182610ff0565b602082019050919050565b6000602082019050818103600083015261105581611019565b9050919050565b7f746f6b656e20646f6573206e6f74206578697374730000000000000000000000600082015250565b6000611092601583610be3565b915061109d8261105c565b602082019050919050565b600060208201905081810360008301526110c181611085565b9050919050565b7f6f776e657220717565727920666f72206e6f6e2d6578697374696e672061646460008201527f7265737300000000000000000000000000000000000000000000000000000000602082015250565b6000611124602483610be3565b915061112f826110c8565b604082019050919050565b6000602082019050818103600083015261115381611117565b9050919050565b7f4552433732313a204572726f72202d205472616e7366657220746f207468652060008201527f7a65726f20616464726573730000000000000000000000000000000000000000602082015250565b60006111b6602c83610be3565b91506111c18261115a565b604082019050919050565b600060208201905081810360008301526111e5816111a9565b9050919050565b7f547279696e6720746f207472616e73666572206120746f6b656e20746865206160008201527f64647265737320646f6573206e6f74206f776e00000000000000000000000000602082015250565b6000611248603383610be3565b9150611253826111ec565b604082019050919050565b600060208201905081810360008301526112778161123b565b9050919050565b7f4e487b7100000000000000000000000000000000000000000000000000000000600052601160045260246000fd5b60006112b882610c8a565b91506112c383610c8a565b92508282039050818111156112db576112da61127e565b5b92915050565b60006112ec82610c8a565b91506112f783610c8a565b925082820190508082111561130f5761130e61127e565b5b9291505056fea264697066735822122025b006a68a0c330037be928477803c9fd03deba6125a842e90d6ed0f81f21b4a64736f6c63430008120033",
  "immutableReferences": {},
  "source": "// SPDX-License-Identifier: MIT\r\npragma solidity ^0.8.0;\r\nimport './ERC721Metadata.sol';\r\nimport './ERC721Enumerable.sol';\r\n\r\n\r\ncontract ERC721Connector is ERC721Metadata, ERC721Enumerable {\r\n    constructor (string memory name, string memory symbol) ERC721Metadata(name, symbol) {\r\n    }\r\n}\r\n",
  "sourcePath": "D:\\repo\\nft-marketplace-starter-kit-main\\src\\contracts\\ERC721Connector.sol",
  "compiler": {
    "name": "solc",
    "version": "0.8.18+commit.87f61d96.Emscripten.clang"
  },
  "schemaVersion": "3.4.11",
  "updatedAt": "2023-02-06T07:03:49.105Z",
  "devdoc": {
    "kind": "dev",
    "methods": {
      "balanceOf(address)": {
        "details": "NFTs assigned to the zero address are considered invalid, and this  function throws for queries about the zero address.",
        "params": {
          "owner": "An address for whom to query the balance"
        },
        "returns": {
          "_0": "The number of NFTs owned by `_owner`, possibly zero"
        }
      },
      "ownerOf(uint256)": {
        "details": "NFTs assigned to zero address are considered invalid, and queries  about them do throw.",
        "params": {
          "tokenId": "The identifier for an NFT"
        },
        "returns": {
          "_0": "The address of the owner of the NFT"
        }
      }
    },
    "version": 1
  },
  "userdoc": {
    "kind": "user",
    "methods": {
      "balanceOf(address)": {
        "notice": "Count all NFTs assigned to an owner"
      },
      "name()": {
        "notice": "A descriptive name for a collection of NFTs in this contract"
      },
      "ownerOf(uint256)": {
        "notice": "Find the owner of an NFT"
      },
      "symbol()": {
        "notice": "An abbreviated name for NFTs in this contract"
      }
    },
    "version": 1
  }
}