{
  "contractName": "ERC721Enumerable",
  "abi": [
    {
      "inputs": [],
      "stateMutability": "nonpayable",
      "type": "constructor"
    },
    {
      "anonymous": false,
      "inputs": [
        {
          "indexed": true,
          "internalType": "address",
          "name": "_from",
          "type": "address"
        },
        {
          "indexed": true,
          "internalType": "address",
          "name": "_to",
          "type": "address"
        },
        {
          "indexed": true,
          "internalType": "uint256",
          "name": "_tokenId",
          "type": "uint256"
        }
      ],
      "name": "Transfer",
      "type": "event"
    },
    {
      "inputs": [
        {
          "internalType": "bytes4",
          "name": "interfaceId",
          "type": "bytes4"
        }
      ],
      "name": "_registerInterface",
      "outputs": [],
      "stateMutability": "nonpayable",
      "type": "function"
    },
    {
      "inputs": [
        {
          "internalType": "address",
          "name": "owner",
          "type": "address"
        }
      ],
      "name": "balanceOf",
      "outputs": [
        {
          "internalType": "uint256",
          "name": "",
          "type": "uint256"
        }
      ],
      "stateMutability": "view",
      "type": "function"
    },
    {
      "inputs": [],
      "name": "calcFingerPrint",
      "outputs": [
        {
          "internalType": "bytes4",
          "name": "",
          "type": "bytes4"
        }
      ],
      "stateMutability": "view",
      "type": "function"
    },
    {
      "inputs": [
        {
          "internalType": "uint256",
          "name": "tokenId",
          "type": "uint256"
        }
      ],
      "name": "ownerOf",
      "outputs": [
        {
          "internalType": "address",
          "name": "",
          "type": "address"
        }
      ],
      "stateMutability": "view",
      "type": "function"
    },
    {
      "inputs": [
        {
          "internalType": "bytes4",
          "name": "interfaceId",
          "type": "bytes4"
        }
      ],
      "name": "supportsInterface",
      "outputs": [
        {
          "internalType": "bool",
          "name": "",
          "type": "bool"
        }
      ],
      "stateMutability": "view",
      "type": "function"
    },
    {
      "inputs": [
        {
          "internalType": "address",
          "name": "from",
          "type": "address"
        },
        {
          "internalType": "address",
          "name": "to",
          "type": "address"
        },
        {
          "internalType": "uint256",
          "name": "tokenId",
          "type": "uint256"
        }
      ],
      "name": "transferFrom",
      "outputs": [],
      "stateMutability": "nonpayable",
      "type": "function"
    },
    {
      "inputs": [
        {
          "internalType": "uint256",
          "name": "index",
          "type": "uint256"
        }
      ],
      "name": "tokenByIndex",
      "outputs": [
        {
          "internalType": "uint256",
          "name": "",
          "type": "uint256"
        }
      ],
      "stateMutability": "view",
      "type": "function"
    },
    {
      "inputs": [
        {
          "internalType": "address",
          "name": "owner",
          "type": "address"
        },
        {
          "internalType": "uint256",
          "name": "index",
          "type": "uint256"
        }
      ],
      "name": "tokenOfOwnerByIndex",
      "outputs": [
        {
          "internalType": "uint256",
          "name": "",
          "type": "uint256"
        }
      ],
      "stateMutability": "view",
      "type": "function"
    },
    {
      "inputs": [],
      "name": "totalSupply",
      "outputs": [
        {
          "internalType": "uint256",
          "name": "",
          "type": "uint256"
        }
      ],
      "stateMutability": "view",
      "type": "function"
    }
  ],
  "bytecode": "0x60806040523480156200001157600080fd5b5062000032620000266200012260201b60201c565b6200014a60201b60201c565b620000a77f8a7e378434598edc36d108689a030cbc9d7d465de4f74c71bae1028eed6a881b7f3a6eb71757dfc6e784c1459d26270140c2c147d95ca985c80026fc5301c3eca17f8a7e378434598edc36d108689a030cbc9d7d465de4f74c71bae1028eed6a881b18186200014a60201b60201c565b6200011c7f8230223f691b981717299fae9549350a0d894555723531f02108b1f522c1a7977f6da5e1284143cdd2d15038a59bde3be031250f00291d64494c12d967b3a4e0c37fc53637662700e6c65104059db8bba34439e0c32483ab7c34e3ccae52c739549518186200014a60201b60201c565b620002a4565b60007f01ffc9a7a5cef8baa21ed3c5c0d7e23accb804b619e9333b597f47a0d84076e2905090565b63ffffffff60e01b817bffffffffffffffffffffffffffffffffffffffffffffffffffffffff191603620001b5576040517f08c379a0000000000000000000000000000000000000000000000000000000008152600401620001ac9062000282565b60405180910390fd5b6001600080837bffffffffffffffffffffffffffffffffffffffffffffffffffffffff19167bffffffffffffffffffffffffffffffffffffffffffffffffffffffff1916815260200190815260200160002060006101000a81548160ff02191690831515021790555050565b600082825260208201905092915050565b7f4552433136353a20496e76616c696420496e7465726661636500000000000000600082015250565b60006200026a60198362000221565b9150620002778262000232565b602082019050919050565b600060208201905081810360008301526200029d816200025b565b9050919050565b6110d480620002b46000396000f3fe608060405234801561001057600080fd5b50600436106100935760003560e01c80632f745c59116100665780632f745c591461011e5780634f6ccce71461014e5780636352211e1461017e57806370a08231146101ae5780638b1ccaee146101de57610093565b806301ffc9a714610098578063068417d9146100c857806318160ddd146100e457806323b872dd14610102575b600080fd5b6100b260048036038101906100ad91906109ff565b6101fc565b6040516100bf9190610a47565b60405180910390f35b6100e260048036038101906100dd91906109ff565b610263565b005b6100ec610337565b6040516100f99190610a7b565b60405180910390f35b61011c60048036038101906101179190610b20565b610344565b005b61013860048036038101906101339190610b73565b610354565b6040516101459190610a7b565b60405180910390f35b61016860048036038101906101639190610bb3565b610404565b6040516101759190610a7b565b60405180910390f35b61019860048036038101906101939190610bb3565b610475565b6040516101a59190610bef565b60405180910390f35b6101c860048036038101906101c39190610c0a565b61059c565b6040516101d59190610a7b565b60405180910390f35b6101e6610653565b6040516101f39190610c46565b60405180910390f35b6000806000837bffffffffffffffffffffffffffffffffffffffffffffffffffffffff19167bffffffffffffffffffffffffffffffffffffffffffffffffffffffff1916815260200190815260200160002060009054906101000a900460ff169050919050565b63ffffffff60e01b817bffffffffffffffffffffffffffffffffffffffffffffffffffffffff1916036102cb576040517f08c379a00000000000000000000000000000000000000000000000000000000081526004016102c290610cbe565b60405180910390fd5b6001600080837bffffffffffffffffffffffffffffffffffffffffffffffffffffffff19167bffffffffffffffffffffffffffffffffffffffffffffffffffffffff1916815260200190815260200160002060006101000a81548160ff02191690831515021790555050565b6000600480549050905090565b61034f83838361067b565b505050565b600061035f8361059c565b82106103a0576040517f08c379a000000000000000000000000000000000000000000000000000000000815260040161039790610d2a565b60405180910390fd5b600660008473ffffffffffffffffffffffffffffffffffffffff1673ffffffffffffffffffffffffffffffffffffffff16815260200190815260200160002082815481106103f1576103f0610d4a565b5b9060005260206000200154905092915050565b600061040e610337565b821061044f576040517f08c379a000000000000000000000000000000000000000000000000000000000815260040161044690610dc5565b60405180910390fd5b6004828154811061046357610462610d4a565b5b90600052602060002001549050919050565b600061048082610930565b6104bf576040517f08c379a00000000000000000000000000000000000000000000000000000000081526004016104b690610e31565b60405180910390fd5b600073ffffffffffffffffffffffffffffffffffffffff166001600084815260200190815260200160002060009054906101000a900473ffffffffffffffffffffffffffffffffffffffff1673ffffffffffffffffffffffffffffffffffffffff1603610561576040517f08c379a000000000000000000000000000000000000000000000000000000000815260040161055890610ec3565b60405180910390fd5b6001600083815260200190815260200160002060009054906101000a900473ffffffffffffffffffffffffffffffffffffffff169050919050565b60008073ffffffffffffffffffffffffffffffffffffffff168273ffffffffffffffffffffffffffffffffffffffff160361060c576040517f08c379a000000000000000000000000000000000000000000000000000000000815260040161060390610ec3565b60405180910390fd5b600260008373ffffffffffffffffffffffffffffffffffffffff1673ffffffffffffffffffffffffffffffffffffffff168152602001908152602001600020549050919050565b60007f01ffc9a7a5cef8baa21ed3c5c0d7e23accb804b619e9333b597f47a0d84076e2905090565b600073ffffffffffffffffffffffffffffffffffffffff168273ffffffffffffffffffffffffffffffffffffffff16036106ea576040517f08c379a00000000000000000000000000000000000000000000000000000000081526004016106e190610f55565b60405180910390fd5b8273ffffffffffffffffffffffffffffffffffffffff1661070a82610475565b73ffffffffffffffffffffffffffffffffffffffff1614610760576040517f08c379a000000000000000000000000000000000000000000000000000000000815260040161075790610fe7565b60405180910390fd5b816001600083815260200190815260200160002060006101000a81548173ffffffffffffffffffffffffffffffffffffffff021916908373ffffffffffffffffffffffffffffffffffffffff1602179055506001600260008573ffffffffffffffffffffffffffffffffffffffff1673ffffffffffffffffffffffffffffffffffffffff168152602001908152602001600020546107fe9190611036565b600260008573ffffffffffffffffffffffffffffffffffffffff1673ffffffffffffffffffffffffffffffffffffffff168152602001908152602001600020819055506001600260008473ffffffffffffffffffffffffffffffffffffffff1673ffffffffffffffffffffffffffffffffffffffff1681526020019081526020016000205461088d919061106a565b600260008473ffffffffffffffffffffffffffffffffffffffff1673ffffffffffffffffffffffffffffffffffffffff16815260200190815260200160002081905550808273ffffffffffffffffffffffffffffffffffffffff168473ffffffffffffffffffffffffffffffffffffffff167fddf252ad1be2c89b69c2b068fc378daa952ba7f163c4a11628f55a4df523b3ef60405160405180910390a4505050565b6000806001600084815260200190815260200160002060009054906101000a900473ffffffffffffffffffffffffffffffffffffffff169050600073ffffffffffffffffffffffffffffffffffffffff168173ffffffffffffffffffffffffffffffffffffffff161415915050919050565b600080fd5b60007fffffffff0000000000000000000000000000000000000000000000000000000082169050919050565b6109dc816109a7565b81146109e757600080fd5b50565b6000813590506109f9816109d3565b92915050565b600060208284031215610a1557610a146109a2565b5b6000610a23848285016109ea565b91505092915050565b60008115159050919050565b610a4181610a2c565b82525050565b6000602082019050610a5c6000830184610a38565b92915050565b6000819050919050565b610a7581610a62565b82525050565b6000602082019050610a906000830184610a6c565b92915050565b600073ffffffffffffffffffffffffffffffffffffffff82169050919050565b6000610ac182610a96565b9050919050565b610ad181610ab6565b8114610adc57600080fd5b50565b600081359050610aee81610ac8565b92915050565b610afd81610a62565b8114610b0857600080fd5b50565b600081359050610b1a81610af4565b92915050565b600080600060608486031215610b3957610b386109a2565b5b6000610b4786828701610adf565b9350506020610b5886828701610adf565b9250506040610b6986828701610b0b565b9150509250925092565b60008060408385031215610b8a57610b896109a2565b5b6000610b9885828601610adf565b9250506020610ba985828601610b0b565b9150509250929050565b600060208284031215610bc957610bc86109a2565b5b6000610bd784828501610b0b565b91505092915050565b610be981610ab6565b82525050565b6000602082019050610c046000830184610be0565b92915050565b600060208284031215610c2057610c1f6109a2565b5b6000610c2e84828501610adf565b91505092915050565b610c40816109a7565b82525050565b6000602082019050610c5b6000830184610c37565b92915050565b600082825260208201905092915050565b7f4552433136353a20496e76616c696420496e7465726661636500000000000000600082015250565b6000610ca8601983610c61565b9150610cb382610c72565b602082019050919050565b60006020820190508181036000830152610cd781610c9b565b9050919050565b7f6f776e657220696e646578206973206f7574206f6620626f756e640000000000600082015250565b6000610d14601b83610c61565b9150610d1f82610cde565b602082019050919050565b60006020820190508181036000830152610d4381610d07565b9050919050565b7f4e487b7100000000000000000000000000000000000000000000000000000000600052603260045260246000fd5b7f676c6f62616c20696e646578206973206f7574206f6620626f756e6400000000600082015250565b6000610daf601c83610c61565b9150610dba82610d79565b602082019050919050565b60006020820190508181036000830152610dde81610da2565b9050919050565b7f746f6b656e20646f6573206e6f74206578697374730000000000000000000000600082015250565b6000610e1b601583610c61565b9150610e2682610de5565b602082019050919050565b60006020820190508181036000830152610e4a81610e0e565b9050919050565b7f6f776e657220717565727920666f72206e6f6e2d6578697374696e672061646460008201527f7265737300000000000000000000000000000000000000000000000000000000602082015250565b6000610ead602483610c61565b9150610eb882610e51565b604082019050919050565b60006020820190508181036000830152610edc81610ea0565b9050919050565b7f4552433732313a204572726f72202d205472616e7366657220746f207468652060008201527f7a65726f20616464726573730000000000000000000000000000000000000000602082015250565b6000610f3f602c83610c61565b9150610f4a82610ee3565b604082019050919050565b60006020820190508181036000830152610f6e81610f32565b9050919050565b7f547279696e6720746f207472616e73666572206120746f6b656e20746865206160008201527f64647265737320646f6573206e6f74206f776e00000000000000000000000000602082015250565b6000610fd1603383610c61565b9150610fdc82610f75565b604082019050919050565b6000602082019050818103600083015261100081610fc4565b9050919050565b7f4e487b7100000000000000000000000000000000000000000000000000000000600052601160045260246000fd5b600061104182610a62565b915061104c83610a62565b925082820390508181111561106457611063611007565b5b92915050565b600061107582610a62565b915061108083610a62565b925082820190508082111561109857611097611007565b5b9291505056fea2646970667358221220a13a9a796a29005594aa2366f62981d295b0f13e50d093660e0c07667da3594064736f6c63430008120033",
  "immutableReferences": {},
  "source": "// SPDX-License-Identifier: MIT\r\npragma solidity ^0.8.0;\r\n\r\nimport './ERC721.sol';\r\nimport \"./interfaces/IERCEnumerable.sol\";\r\n\r\ncontract ERC721Enumerable is ERC721, IERC721Enumerable {\r\n    uint256[] private _allTokens;\r\n    //mapping from tokenId to position in _allTokens array\r\n    mapping(uint256 => uint256) private _allTokensIndex;\r\n    //mapping of owner to list of all owner token ids\r\n    mapping(address => uint256[]) private _ownedTokens;\r\n    //mapping from token ID index of te owner tokens list\r\n    mapping(uint256 => uint256) private _ownedTokensIndex;\r\n    //return total supply of the _allTokens array\r\n\r\n    constructor() {\r\n        _registerInterface(bytes4(keccak256('totalSupply(bytes4)')^keccak256('tokenByIndex(bytes4)')^keccak256('tokenOfOwnerByIndex(bytes4)')));\r\n    }\r\n    function tokenByIndex(uint256 index) public override view returns (uint256) {\r\n        require(index < totalSupply(), 'global index is out of bound');\r\n        return _allTokens[index];\r\n    }\r\n\r\n    function tokenOfOwnerByIndex(address owner, uint256 index) public override view returns (uint256) {\r\n        require(index < balanceOf(owner), 'owner index is out of bound');\r\n        return _ownedTokens[owner][index];\r\n    }\r\n\r\n    function _mint(address to, uint256 tokenId) internal override(ERC721) {\r\n        super._mint(to, tokenId);\r\n        //add token to the owner\r\n        //add token to totalSupply\r\n        _addTokensToAllTokenEnumeration(tokenId);\r\n        _addTokenToOwnerEnumeration(tokenId, to);\r\n    }\r\n\r\n    //add tokens to the _allTokens array and set the position of the tokens indexes\r\n    function _addTokensToAllTokenEnumeration(uint256 tokenId) private {\r\n        _allTokensIndex[tokenId] = _allTokens.length;\r\n        _allTokens.push(tokenId);\r\n    }\r\n\r\n    function _addTokenToOwnerEnumeration(uint256 tokenId, address to) private {\r\n        //add address and tokenId to the _ownedTokens\r\n        //_ownedTokensIndex tokenId set to the address of ownedTokens position\r\n        //execute the function with minting\r\n        _ownedTokensIndex[tokenId] = _ownedTokens[to].length;\r\n        _ownedTokens[to].push(tokenId);\r\n    }\r\n\r\n    function totalSupply() public override view returns (uint256) {\r\n        return _allTokens.length;\r\n    }\r\n}\r\n",
  "sourcePath": "D:\\repo\\nft-marketplace-starter-kit-main\\src\\contracts\\ERC721Enumerable.sol",
  "compiler": {
    "name": "solc",
    "version": "0.8.18+commit.87f61d96.Emscripten.clang"
  },
  "schemaVersion": "3.4.11",
  "updatedAt": "2023-02-06T07:03:49.174Z",
  "devdoc": {
    "kind": "dev",
    "methods": {
      "balanceOf(address)": {
        "details": "NFTs assigned to the zero address are considered invalid, and this  function throws for queries about the zero address.",
        "params": {
          "owner": "An address for whom to query the balance"
        },
        "returns": {
          "_0": "The number of NFTs owned by `_owner`, possibly zero"
        }
      },
      "ownerOf(uint256)": {
        "details": "NFTs assigned to zero address are considered invalid, and queries  about them do throw.",
        "params": {
          "tokenId": "The identifier for an NFT"
        },
        "returns": {
          "_0": "The address of the owner of the NFT"
        }
      }
    },
    "version": 1
  },
  "userdoc": {
    "kind": "user",
    "methods": {
      "balanceOf(address)": {
        "notice": "Count all NFTs assigned to an owner"
      },
      "ownerOf(uint256)": {
        "notice": "Find the owner of an NFT"
      }
    },
    "version": 1
  }
}