{
  "contractName": "ERC721",
  "abi": [
    {
      "inputs": [],
      "stateMutability": "nonpayable",
      "type": "constructor"
    },
    {
      "anonymous": false,
      "inputs": [
        {
          "indexed": true,
          "internalType": "address",
          "name": "_from",
          "type": "address"
        },
        {
          "indexed": true,
          "internalType": "address",
          "name": "_to",
          "type": "address"
        },
        {
          "indexed": true,
          "internalType": "uint256",
          "name": "_tokenId",
          "type": "uint256"
        }
      ],
      "name": "Transfer",
      "type": "event"
    },
    {
      "inputs": [
        {
          "internalType": "bytes4",
          "name": "interfaceId",
          "type": "bytes4"
        }
      ],
      "name": "_registerInterface",
      "outputs": [],
      "stateMutability": "nonpayable",
      "type": "function"
    },
    {
      "inputs": [],
      "name": "calcFingerPrint",
      "outputs": [
        {
          "internalType": "bytes4",
          "name": "",
          "type": "bytes4"
        }
      ],
      "stateMutability": "view",
      "type": "function"
    },
    {
      "inputs": [
        {
          "internalType": "bytes4",
          "name": "interfaceId",
          "type": "bytes4"
        }
      ],
      "name": "supportsInterface",
      "outputs": [
        {
          "internalType": "bool",
          "name": "",
          "type": "bool"
        }
      ],
      "stateMutability": "view",
      "type": "function"
    },
    {
      "inputs": [
        {
          "internalType": "address",
          "name": "from",
          "type": "address"
        },
        {
          "internalType": "address",
          "name": "to",
          "type": "address"
        },
        {
          "internalType": "uint256",
          "name": "tokenId",
          "type": "uint256"
        }
      ],
      "name": "transferFrom",
      "outputs": [],
      "stateMutability": "nonpayable",
      "type": "function"
    },
    {
      "inputs": [
        {
          "internalType": "address",
          "name": "owner",
          "type": "address"
        }
      ],
      "name": "balanceOf",
      "outputs": [
        {
          "internalType": "uint256",
          "name": "",
          "type": "uint256"
        }
      ],
      "stateMutability": "view",
      "type": "function"
    },
    {
      "inputs": [
        {
          "internalType": "uint256",
          "name": "tokenId",
          "type": "uint256"
        }
      ],
      "name": "ownerOf",
      "outputs": [
        {
          "internalType": "address",
          "name": "",
          "type": "address"
        }
      ],
      "stateMutability": "view",
      "type": "function"
    }
  ],
  "bytecode": "0x608060405234801561001057600080fd5b5061002d6100226100a560201b60201c565b6100cd60201b60201c565b6100a07f8a7e378434598edc36d108689a030cbc9d7d465de4f74c71bae1028eed6a881b7f3a6eb71757dfc6e784c1459d26270140c2c147d95ca985c80026fc5301c3eca17f8a7e378434598edc36d108689a030cbc9d7d465de4f74c71bae1028eed6a881b18186100cd60201b60201c565b61021e565b60007f01ffc9a7a5cef8baa21ed3c5c0d7e23accb804b619e9333b597f47a0d84076e2905090565b63ffffffff60e01b817bffffffffffffffffffffffffffffffffffffffffffffffffffffffff191603610135576040517f08c379a000000000000000000000000000000000000000000000000000000000815260040161012c906101fe565b60405180910390fd5b6001600080837bffffffffffffffffffffffffffffffffffffffffffffffffffffffff19167bffffffffffffffffffffffffffffffffffffffffffffffffffffffff1916815260200190815260200160002060006101000a81548160ff02191690831515021790555050565b600082825260208201905092915050565b7f4552433136353a20496e76616c696420496e7465726661636500000000000000600082015250565b60006101e86019836101a1565b91506101f3826101b2565b602082019050919050565b60006020820190508181036000830152610217816101db565b9050919050565b610db0806200022e6000396000f3fe608060405234801561001057600080fd5b50600436106100625760003560e01c806301ffc9a714610067578063068417d91461009757806323b872dd146100b35780636352211e146100cf57806370a08231146100ff5780638b1ccaee1461012f575b600080fd5b610081600480360381019061007c9190610822565b61014d565b60405161008e919061086a565b60405180910390f35b6100b160048036038101906100ac9190610822565b6101b4565b005b6100cd60048036038101906100c89190610919565b610288565b005b6100e960048036038101906100e4919061096c565b610298565b6040516100f691906109a8565b60405180910390f35b610119600480360381019061011491906109c3565b6103bf565b60405161012691906109ff565b60405180910390f35b610137610476565b6040516101449190610a29565b60405180910390f35b6000806000837bffffffffffffffffffffffffffffffffffffffffffffffffffffffff19167bffffffffffffffffffffffffffffffffffffffffffffffffffffffff1916815260200190815260200160002060009054906101000a900460ff169050919050565b63ffffffff60e01b817bffffffffffffffffffffffffffffffffffffffffffffffffffffffff19160361021c576040517f08c379a000000000000000000000000000000000000000000000000000000000815260040161021390610aa1565b60405180910390fd5b6001600080837bffffffffffffffffffffffffffffffffffffffffffffffffffffffff19167bffffffffffffffffffffffffffffffffffffffffffffffffffffffff1916815260200190815260200160002060006101000a81548160ff02191690831515021790555050565b61029383838361049e565b505050565b60006102a382610753565b6102e2576040517f08c379a00000000000000000000000000000000000000000000000000000000081526004016102d990610b0d565b60405180910390fd5b600073ffffffffffffffffffffffffffffffffffffffff166001600084815260200190815260200160002060009054906101000a900473ffffffffffffffffffffffffffffffffffffffff1673ffffffffffffffffffffffffffffffffffffffff1603610384576040517f08c379a000000000000000000000000000000000000000000000000000000000815260040161037b90610b9f565b60405180910390fd5b6001600083815260200190815260200160002060009054906101000a900473ffffffffffffffffffffffffffffffffffffffff169050919050565b60008073ffffffffffffffffffffffffffffffffffffffff168273ffffffffffffffffffffffffffffffffffffffff160361042f576040517f08c379a000000000000000000000000000000000000000000000000000000000815260040161042690610b9f565b60405180910390fd5b600260008373ffffffffffffffffffffffffffffffffffffffff1673ffffffffffffffffffffffffffffffffffffffff168152602001908152602001600020549050919050565b60007f01ffc9a7a5cef8baa21ed3c5c0d7e23accb804b619e9333b597f47a0d84076e2905090565b600073ffffffffffffffffffffffffffffffffffffffff168273ffffffffffffffffffffffffffffffffffffffff160361050d576040517f08c379a000000000000000000000000000000000000000000000000000000000815260040161050490610c31565b60405180910390fd5b8273ffffffffffffffffffffffffffffffffffffffff1661052d82610298565b73ffffffffffffffffffffffffffffffffffffffff1614610583576040517f08c379a000000000000000000000000000000000000000000000000000000000815260040161057a90610cc3565b60405180910390fd5b816001600083815260200190815260200160002060006101000a81548173ffffffffffffffffffffffffffffffffffffffff021916908373ffffffffffffffffffffffffffffffffffffffff1602179055506001600260008573ffffffffffffffffffffffffffffffffffffffff1673ffffffffffffffffffffffffffffffffffffffff168152602001908152602001600020546106219190610d12565b600260008573ffffffffffffffffffffffffffffffffffffffff1673ffffffffffffffffffffffffffffffffffffffff168152602001908152602001600020819055506001600260008473ffffffffffffffffffffffffffffffffffffffff1673ffffffffffffffffffffffffffffffffffffffff168152602001908152602001600020546106b09190610d46565b600260008473ffffffffffffffffffffffffffffffffffffffff1673ffffffffffffffffffffffffffffffffffffffff16815260200190815260200160002081905550808273ffffffffffffffffffffffffffffffffffffffff168473ffffffffffffffffffffffffffffffffffffffff167fddf252ad1be2c89b69c2b068fc378daa952ba7f163c4a11628f55a4df523b3ef60405160405180910390a4505050565b6000806001600084815260200190815260200160002060009054906101000a900473ffffffffffffffffffffffffffffffffffffffff169050600073ffffffffffffffffffffffffffffffffffffffff168173ffffffffffffffffffffffffffffffffffffffff161415915050919050565b600080fd5b60007fffffffff0000000000000000000000000000000000000000000000000000000082169050919050565b6107ff816107ca565b811461080a57600080fd5b50565b60008135905061081c816107f6565b92915050565b600060208284031215610838576108376107c5565b5b60006108468482850161080d565b91505092915050565b60008115159050919050565b6108648161084f565b82525050565b600060208201905061087f600083018461085b565b92915050565b600073ffffffffffffffffffffffffffffffffffffffff82169050919050565b60006108b082610885565b9050919050565b6108c0816108a5565b81146108cb57600080fd5b50565b6000813590506108dd816108b7565b92915050565b6000819050919050565b6108f6816108e3565b811461090157600080fd5b50565b600081359050610913816108ed565b92915050565b600080600060608486031215610932576109316107c5565b5b6000610940868287016108ce565b9350506020610951868287016108ce565b925050604061096286828701610904565b9150509250925092565b600060208284031215610982576109816107c5565b5b600061099084828501610904565b91505092915050565b6109a2816108a5565b82525050565b60006020820190506109bd6000830184610999565b92915050565b6000602082840312156109d9576109d86107c5565b5b60006109e7848285016108ce565b91505092915050565b6109f9816108e3565b82525050565b6000602082019050610a1460008301846109f0565b92915050565b610a23816107ca565b82525050565b6000602082019050610a3e6000830184610a1a565b92915050565b600082825260208201905092915050565b7f4552433136353a20496e76616c696420496e7465726661636500000000000000600082015250565b6000610a8b601983610a44565b9150610a9682610a55565b602082019050919050565b60006020820190508181036000830152610aba81610a7e565b9050919050565b7f746f6b656e20646f6573206e6f74206578697374730000000000000000000000600082015250565b6000610af7601583610a44565b9150610b0282610ac1565b602082019050919050565b60006020820190508181036000830152610b2681610aea565b9050919050565b7f6f776e657220717565727920666f72206e6f6e2d6578697374696e672061646460008201527f7265737300000000000000000000000000000000000000000000000000000000602082015250565b6000610b89602483610a44565b9150610b9482610b2d565b604082019050919050565b60006020820190508181036000830152610bb881610b7c565b9050919050565b7f4552433732313a204572726f72202d205472616e7366657220746f207468652060008201527f7a65726f20616464726573730000000000000000000000000000000000000000602082015250565b6000610c1b602c83610a44565b9150610c2682610bbf565b604082019050919050565b60006020820190508181036000830152610c4a81610c0e565b9050919050565b7f547279696e6720746f207472616e73666572206120746f6b656e20746865206160008201527f64647265737320646f6573206e6f74206f776e00000000000000000000000000602082015250565b6000610cad603383610a44565b9150610cb882610c51565b604082019050919050565b60006020820190508181036000830152610cdc81610ca0565b9050919050565b7f4e487b7100000000000000000000000000000000000000000000000000000000600052601160045260246000fd5b6000610d1d826108e3565b9150610d28836108e3565b9250828203905081811115610d4057610d3f610ce3565b5b92915050565b6000610d51826108e3565b9150610d5c836108e3565b9250828201905080821115610d7457610d73610ce3565b5b9291505056fea2646970667358221220fa306d3f1f1f8135ba04fda40593f174f2b41b7c4694c0ec6082423f7b5b91e864736f6c63430008120033",
  "immutableReferences": {},
  "source": "// SPDX-License-Identifier: MIT\r\npragma solidity ^0.8.0;\r\n\r\nimport \"./ERC165.sol\";\r\nimport \"./interfaces/IERC721.sol\";\r\n\r\ncontract ERC721 is ERC165, IERC721 {\r\n\r\n    //Mapping from token id to the owner\r\n    mapping(uint256 => address) private _tokenOwner;\r\n    //Mapping from owner to number of owned token\r\n    mapping(address => uint256) private _OwnedTokensCount;\r\n    //Mapping from token id to approved addresses\r\n    mapping(uint256 => address) private _tokenApprovals;\r\n\r\n    constructor() {\r\n        _registerInterface(bytes4(keccak256('balanceOf(bytes4)')^keccak256('ownerOf(bytes4)')^keccak256('balanceOf(bytes4)')));\r\n    }\r\n\r\n    function _exists(uint256 tokenId) internal view returns (bool) {\r\n        //setting the address nft owner to check the mapping of the address from tokenOwner at the tokenId\r\n        address owner = _tokenOwner[tokenId];\r\n        //return truthiness that address is not zero\r\n        return owner != address(0);\r\n    }\r\n\r\n    function _mint(address to, uint256 tokenId) internal virtual {\r\n        //requires that the address is not zero\r\n        require(to != address(0), 'ERC7621: minting to the zero address');\r\n        //requires the token does not already exist\r\n        require(!_exists(tokenId), 'ERC721 token already minted');\r\n        //adding a new address with a token id for minting\r\n        _tokenOwner[tokenId] = to;\r\n        //keeping track of each address that is minting and adding one to the count\r\n        _OwnedTokensCount[to] = _OwnedTokensCount[to] + 1;\r\n        emit Transfer(address(0), to, tokenId);\r\n    }\r\n\r\n    function _transferFrom(address from, address to, uint256 tokenId) internal {\r\n        require(to != address(0), 'ERC721: Error - Transfer to the zero address');\r\n        require(ownerOf(tokenId) == from, 'Trying to transfer a token the address does not own');\r\n        //update token owner mapping\r\n        _tokenOwner[tokenId] = to;\r\n        //update from address token balance\r\n        _OwnedTokensCount[from] = _OwnedTokensCount[from] - 1;\r\n        //update to address token balance\r\n        _OwnedTokensCount[to] = _OwnedTokensCount[to] + 1;\r\n        emit Transfer(from, to, tokenId);\r\n    }\r\n\r\n    function transferFrom(address from, address to, uint256 tokenId) public override {\r\n        _transferFrom(from, to, tokenId);\r\n    }\r\n\r\n    /// @notice Count all NFTs assigned to an owner\r\n    /// @dev NFTs assigned to the zero address are considered invalid, and this\r\n    ///  function throws for queries about the zero address.\r\n    /// @param owner An address for whom to query the balance\r\n    /// @return The number of NFTs owned by `_owner`, possibly zero\r\n    function balanceOf(address owner) public view override returns (uint256) {\r\n        require(owner != address(0), 'owner query for non-existing address');\r\n        return _OwnedTokensCount[owner];\r\n    }\r\n\r\n    /// @notice Find the owner of an NFT\r\n    /// @dev NFTs assigned to zero address are considered invalid, and queries\r\n    ///  about them do throw.\r\n    /// @param tokenId The identifier for an NFT\r\n    /// @return The address of the owner of the NFT\r\n    function ownerOf(uint256 tokenId) public view override returns (address) {\r\n        require(_exists(tokenId), 'token does not exists');\r\n        require(_tokenOwner[tokenId] != address(0), 'owner query for non-existing address');\r\n        return _tokenOwner[tokenId];\r\n    }\r\n\r\n}\r\n",
  "sourcePath": "D:\\repo\\nft-marketplace-starter-kit-main\\src\\contracts\\ERC721.sol",
  "compiler": {
    "name": "solc",
    "version": "0.8.18+commit.87f61d96.Emscripten.clang"
  },
  "schemaVersion": "3.4.11",
  "updatedAt": "2023-02-10T09:18:05.280Z",
  "devdoc": {
    "kind": "dev",
    "methods": {
      "balanceOf(address)": {
        "details": "NFTs assigned to the zero address are considered invalid, and this  function throws for queries about the zero address.",
        "params": {
          "owner": "An address for whom to query the balance"
        },
        "returns": {
          "_0": "The number of NFTs owned by `_owner`, possibly zero"
        }
      },
      "ownerOf(uint256)": {
        "details": "NFTs assigned to zero address are considered invalid, and queries  about them do throw.",
        "params": {
          "tokenId": "The identifier for an NFT"
        },
        "returns": {
          "_0": "The address of the owner of the NFT"
        }
      }
    },
    "version": 1
  },
  "userdoc": {
    "kind": "user",
    "methods": {
      "balanceOf(address)": {
        "notice": "Count all NFTs assigned to an owner"
      },
      "ownerOf(uint256)": {
        "notice": "Find the owner of an NFT"
      }
    },
    "version": 1
  }
}