{
  "contractName": "KryptoBird",
  "abi": [
    {
      "inputs": [],
      "stateMutability": "nonpayable",
      "type": "constructor"
    },
    {
      "anonymous": false,
      "inputs": [
        {
          "indexed": true,
          "internalType": "address",
          "name": "from",
          "type": "address"
        },
        {
          "indexed": true,
          "internalType": "address",
          "name": "to",
          "type": "address"
        },
        {
          "indexed": true,
          "internalType": "uint256",
          "name": "tokenId",
          "type": "uint256"
        }
      ],
      "name": "Transfer",
      "type": "event"
    },
    {
      "inputs": [
        {
          "internalType": "address",
          "name": "owner",
          "type": "address"
        }
      ],
      "name": "balanceOf",
      "outputs": [
        {
          "internalType": "uint256",
          "name": "",
          "type": "uint256"
        }
      ],
      "stateMutability": "view",
      "type": "function",
      "constant": true
    },
    {
      "inputs": [
        {
          "internalType": "uint256",
          "name": "",
          "type": "uint256"
        }
      ],
      "name": "kryptoBirdz",
      "outputs": [
        {
          "internalType": "string",
          "name": "",
          "type": "string"
        }
      ],
      "stateMutability": "view",
      "type": "function",
      "constant": true
    },
    {
      "inputs": [],
      "name": "name",
      "outputs": [
        {
          "internalType": "string",
          "name": "",
          "type": "string"
        }
      ],
      "stateMutability": "view",
      "type": "function",
      "constant": true
    },
    {
      "inputs": [
        {
          "internalType": "uint256",
          "name": "tokenId",
          "type": "uint256"
        }
      ],
      "name": "ownerOf",
      "outputs": [
        {
          "internalType": "address",
          "name": "",
          "type": "address"
        }
      ],
      "stateMutability": "view",
      "type": "function",
      "constant": true
    },
    {
      "inputs": [],
      "name": "symbol",
      "outputs": [
        {
          "internalType": "string",
          "name": "",
          "type": "string"
        }
      ],
      "stateMutability": "view",
      "type": "function",
      "constant": true
    },
    {
      "inputs": [],
      "name": "totalSupply",
      "outputs": [
        {
          "internalType": "uint256",
          "name": "",
          "type": "uint256"
        }
      ],
      "stateMutability": "view",
      "type": "function",
      "constant": true
    },
    {
      "inputs": [
        {
          "internalType": "string",
          "name": "_kryptoBird",
          "type": "string"
        }
      ],
      "name": "mint",
      "outputs": [],
      "stateMutability": "nonpayable",
      "type": "function"
    }
  ],
  "bytecode": "0x60806040523480156200001157600080fd5b506040518060400160405280600a81526020017f4b727970746f62697264000000000000000000000000000000000000000000008152506040518060400160405280600581526020017f4b424952440000000000000000000000000000000000000000000000000000008152508181816000908162000091919062000328565b508060019081620000a3919062000328565b50505050506200040f565b600081519050919050565b7f4e487b7100000000000000000000000000000000000000000000000000000000600052604160045260246000fd5b7f4e487b7100000000000000000000000000000000000000000000000000000000600052602260045260246000fd5b600060028204905060018216806200013057607f821691505b602082108103620001465762000145620000e8565b5b50919050565b60008190508160005260206000209050919050565b60006020601f8301049050919050565b600082821b905092915050565b600060088302620001b07fffffffffffffffffffffffffffffffffffffffffffffffffffffffffffffffff8262000171565b620001bc868362000171565b95508019841693508086168417925050509392505050565b6000819050919050565b6000819050919050565b60006200020962000203620001fd84620001d4565b620001de565b620001d4565b9050919050565b6000819050919050565b6200022583620001e8565b6200023d620002348262000210565b8484546200017e565b825550505050565b600090565b6200025462000245565b620002618184846200021a565b505050565b5b8181101562000289576200027d6000826200024a565b60018101905062000267565b5050565b601f821115620002d857620002a2816200014c565b620002ad8462000161565b81016020851015620002bd578190505b620002d5620002cc8562000161565b83018262000266565b50505b505050565b600082821c905092915050565b6000620002fd60001984600802620002dd565b1980831691505092915050565b6000620003188383620002ea565b9150826002028217905092915050565b6200033382620000ae565b67ffffffffffffffff8111156200034f576200034e620000b9565b5b6200035b825462000117565b620003688282856200028d565b600060209050601f831160018114620003a057600084156200038b578287015190505b6200039785826200030a565b86555062000407565b601f198416620003b0866200014c565b60005b82811015620003da57848901518255600182019150602085019450602081019050620003b3565b86831015620003fa5784890151620003f6601f891682620002ea565b8355505b6001600288020188555050505b505050505050565b6112ff806200041f6000396000f3fe608060405234801561001057600080fd5b506004361061007d5760003560e01c806370a082311161005b57806370a08231146100ee57806393ab6e561461011e57806395d89b411461014e578063d85d3d271461016c5761007d565b806306fdde031461008257806318160ddd146100a05780636352211e146100be575b600080fd5b61008a610188565b604051610097919061097d565b60405180910390f35b6100a861021a565b6040516100b591906109b8565b60405180910390f35b6100d860048036038101906100d39190610a13565b610227565b6040516100e59190610a81565b60405180910390f35b61010860048036038101906101039190610ac8565b61034e565b60405161011591906109b8565b60405180910390f35b61013860048036038101906101339190610a13565b610405565b604051610145919061097d565b60405180910390f35b6101566104b1565b604051610163919061097d565b60405180910390f35b61018660048036038101906101819190610c2a565b610543565b005b60606000805461019790610ca2565b80601f01602080910402602001604051908101604052809291908181526020018280546101c390610ca2565b80156102105780601f106101e557610100808354040283529160200191610210565b820191906000526020600020905b8154815290600101906020018083116101f357829003601f168201915b5050505050905090565b6000600480549050905090565b60006102328261063f565b610271576040517f08c379a000000000000000000000000000000000000000000000000000000000815260040161026890610d1f565b60405180910390fd5b600073ffffffffffffffffffffffffffffffffffffffff166002600084815260200190815260200160002060009054906101000a900473ffffffffffffffffffffffffffffffffffffffff1673ffffffffffffffffffffffffffffffffffffffff1603610313576040517f08c379a000000000000000000000000000000000000000000000000000000000815260040161030a90610db1565b60405180910390fd5b6002600083815260200190815260200160002060009054906101000a900473ffffffffffffffffffffffffffffffffffffffff169050919050565b60008073ffffffffffffffffffffffffffffffffffffffff168273ffffffffffffffffffffffffffffffffffffffff16036103be576040517f08c379a00000000000000000000000000000000000000000000000000000000081526004016103b590610db1565b60405180910390fd5b600360008373ffffffffffffffffffffffffffffffffffffffff1673ffffffffffffffffffffffffffffffffffffffff168152602001908152602001600020549050919050565b6008818154811061041557600080fd5b90600052602060002001600091509050805461043090610ca2565b80601f016020809104026020016040519081016040528092919081815260200182805461045c90610ca2565b80156104a95780601f1061047e576101008083540402835291602001916104a9565b820191906000526020600020905b81548152906001019060200180831161048c57829003601f168201915b505050505081565b6060600180546104c090610ca2565b80601f01602080910402602001604051908101604052809291908181526020018280546104ec90610ca2565b80156105395780601f1061050e57610100808354040283529160200191610539565b820191906000526020600020905b81548152906001019060200180831161051c57829003601f168201915b5050505050905090565b6009816040516105539190610e0d565b908152602001604051809103902060009054906101000a900460ff16156105af576040517f08c379a00000000000000000000000000000000000000000000000000000000081526004016105a690610e96565b60405180910390fd5b6008819080600181540180825580915050600190039060005260206000200160009091909190915090816105e39190611062565b50600060016008805490506105f89190611163565b905061060433826106b1565b60016009836040516106169190610e0d565b908152602001604051809103902060006101000a81548160ff0219169083151502179055505050565b6000806002600084815260200190815260200160002060009054906101000a900473ffffffffffffffffffffffffffffffffffffffff169050600073ffffffffffffffffffffffffffffffffffffffff168173ffffffffffffffffffffffffffffffffffffffff161415915050919050565b6106bb82826106c8565b6106c4816108c1565b5050565b600073ffffffffffffffffffffffffffffffffffffffff168273ffffffffffffffffffffffffffffffffffffffff1603610737576040517f08c379a000000000000000000000000000000000000000000000000000000000815260040161072e90611209565b60405180910390fd5b6107408161063f565b15610780576040517f08c379a000000000000000000000000000000000000000000000000000000000815260040161077790611275565b60405180910390fd5b816002600083815260200190815260200160002060006101000a81548173ffffffffffffffffffffffffffffffffffffffff021916908373ffffffffffffffffffffffffffffffffffffffff1602179055506001600360008473ffffffffffffffffffffffffffffffffffffffff1673ffffffffffffffffffffffffffffffffffffffff1681526020019081526020016000205461081e9190611295565b600360008473ffffffffffffffffffffffffffffffffffffffff1673ffffffffffffffffffffffffffffffffffffffff16815260200190815260200160002081905550808273ffffffffffffffffffffffffffffffffffffffff16600073ffffffffffffffffffffffffffffffffffffffff167fddf252ad1be2c89b69c2b068fc378daa952ba7f163c4a11628f55a4df523b3ef60405160405180910390a45050565b600481908060018154018082558091505060019003906000526020600020016000909190919091505550565b600081519050919050565b600082825260208201905092915050565b60005b8381101561092757808201518184015260208101905061090c565b60008484015250505050565b6000601f19601f8301169050919050565b600061094f826108ed565b61095981856108f8565b9350610969818560208601610909565b61097281610933565b840191505092915050565b600060208201905081810360008301526109978184610944565b905092915050565b6000819050919050565b6109b28161099f565b82525050565b60006020820190506109cd60008301846109a9565b92915050565b6000604051905090565b600080fd5b600080fd5b6109f08161099f565b81146109fb57600080fd5b50565b600081359050610a0d816109e7565b92915050565b600060208284031215610a2957610a286109dd565b5b6000610a37848285016109fe565b91505092915050565b600073ffffffffffffffffffffffffffffffffffffffff82169050919050565b6000610a6b82610a40565b9050919050565b610a7b81610a60565b82525050565b6000602082019050610a966000830184610a72565b92915050565b610aa581610a60565b8114610ab057600080fd5b50565b600081359050610ac281610a9c565b92915050565b600060208284031215610ade57610add6109dd565b5b6000610aec84828501610ab3565b91505092915050565b600080fd5b600080fd5b7f4e487b7100000000000000000000000000000000000000000000000000000000600052604160045260246000fd5b610b3782610933565b810181811067ffffffffffffffff82111715610b5657610b55610aff565b5b80604052505050565b6000610b696109d3565b9050610b758282610b2e565b919050565b600067ffffffffffffffff821115610b9557610b94610aff565b5b610b9e82610933565b9050602081019050919050565b82818337600083830152505050565b6000610bcd610bc884610b7a565b610b5f565b905082815260208101848484011115610be957610be8610afa565b5b610bf4848285610bab565b509392505050565b600082601f830112610c1157610c10610af5565b5b8135610c21848260208601610bba565b91505092915050565b600060208284031215610c4057610c3f6109dd565b5b600082013567ffffffffffffffff811115610c5e57610c5d6109e2565b5b610c6a84828501610bfc565b91505092915050565b7f4e487b7100000000000000000000000000000000000000000000000000000000600052602260045260246000fd5b60006002820490506001821680610cba57607f821691505b602082108103610ccd57610ccc610c73565b5b50919050565b7f746f6b656e20646f6573206e6f74206578697374730000000000000000000000600082015250565b6000610d096015836108f8565b9150610d1482610cd3565b602082019050919050565b60006020820190508181036000830152610d3881610cfc565b9050919050565b7f6f776e657220717565727920666f72206e6f6e2d6578697374696e672061646460008201527f7265737300000000000000000000000000000000000000000000000000000000602082015250565b6000610d9b6024836108f8565b9150610da682610d3f565b604082019050919050565b60006020820190508181036000830152610dca81610d8e565b9050919050565b600081905092915050565b6000610de7826108ed565b610df18185610dd1565b9350610e01818560208601610909565b80840191505092915050565b6000610e198284610ddc565b915081905092915050565b7f4572726f72202d204b727970746f4269726420616c726561647920657869737460008201527f7300000000000000000000000000000000000000000000000000000000000000602082015250565b6000610e806021836108f8565b9150610e8b82610e24565b604082019050919050565b60006020820190508181036000830152610eaf81610e73565b9050919050565b60008190508160005260206000209050919050565b60006020601f8301049050919050565b600082821b905092915050565b600060088302610f187fffffffffffffffffffffffffffffffffffffffffffffffffffffffffffffffff82610edb565b610f228683610edb565b95508019841693508086168417925050509392505050565b6000819050919050565b6000610f5f610f5a610f558461099f565b610f3a565b61099f565b9050919050565b6000819050919050565b610f7983610f44565b610f8d610f8582610f66565b848454610ee8565b825550505050565b600090565b610fa2610f95565b610fad818484610f70565b505050565b5b81811015610fd157610fc6600082610f9a565b600181019050610fb3565b5050565b601f82111561101657610fe781610eb6565b610ff084610ecb565b81016020851015610fff578190505b61101361100b85610ecb565b830182610fb2565b50505b505050565b600082821c905092915050565b60006110396000198460080261101b565b1980831691505092915050565b60006110528383611028565b9150826002028217905092915050565b61106b826108ed565b67ffffffffffffffff81111561108457611083610aff565b5b61108e8254610ca2565b611099828285610fd5565b600060209050601f8311600181146110cc57600084156110ba578287015190505b6110c48582611046565b86555061112c565b601f1984166110da86610eb6565b60005b82811015611102578489015182556001820191506020850194506020810190506110dd565b8683101561111f578489015161111b601f891682611028565b8355505b6001600288020188555050505b505050505050565b7f4e487b7100000000000000000000000000000000000000000000000000000000600052601160045260246000fd5b600061116e8261099f565b91506111798361099f565b925082820390508181111561119157611190611134565b5b92915050565b7f455243373632313a206d696e74696e6720746f20746865207a65726f2061646460008201527f7265737300000000000000000000000000000000000000000000000000000000602082015250565b60006111f36024836108f8565b91506111fe82611197565b604082019050919050565b60006020820190508181036000830152611222816111e6565b9050919050565b7f45524337323120746f6b656e20616c7265616479206d696e7465640000000000600082015250565b600061125f601b836108f8565b915061126a82611229565b602082019050919050565b6000602082019050818103600083015261128e81611252565b9050919050565b60006112a08261099f565b91506112ab8361099f565b92508282019050808211156112c3576112c2611134565b5b9291505056fea2646970667358221220bdc60bd55fc3ed1b803281cdad2f950a1b4e8d42cc8e518e7a13a3df3fcf934a64736f6c63430008110033",
  "immutableReferences": {},
  "source": "// SPDX-License-Identifier: MIT\r\npragma solidity ^0.8.8;\r\nimport './ERC721Connector.sol';\r\ncontract KryptoBird is ERC721Connector {\r\n\r\n    constructor () ERC721Connector(\"Kryptobird\", \"KBIRD\") {\r\n    }\r\n    string[] public kryptoBirdz;\r\n    mapping(string => bool) _kryptoBirdzExists;\r\n    function mint(string memory _kryptoBird) public {\r\n        require(!_kryptoBirdzExists[_kryptoBird], 'Error - KryptoBird already exists');\r\n        kryptoBirdz.push(_kryptoBird);\r\n        uint _id = kryptoBirdz.length - 1;\r\n        _mint(msg.sender, _id);\r\n        _kryptoBirdzExists[_kryptoBird] = true;\r\n    }\r\n}\r\n",
  "sourcePath": "D:\\repo\\nft-marketplace-starter-kit-main\\src\\contracts\\KryptoBirdz.sol",
  "compiler": {
    "name": "solc",
    "version": "0.8.17+commit.8df45f5f.Emscripten.clang"
  },
  "schemaVersion": "3.4.11",
  "updatedAt": "2023-01-20T10:41:18.829Z",
  "networkType": "ethereum",
  "devdoc": {
    "kind": "dev",
    "methods": {
      "balanceOf(address)": {
        "details": "NFTs assigned to the zero address are considered invalid, and this  function throws for queries about the zero address.",
        "params": {
          "owner": "An address for whom to query the balance"
        },
        "returns": {
          "_0": "The number of NFTs owned by `_owner`, possibly zero"
        }
      },
      "ownerOf(uint256)": {
        "details": "NFTs assigned to zero address are considered invalid, and queries  about them do throw.",
        "params": {
          "tokenId": "The identifier for an NFT"
        },
        "returns": {
          "_0": "The address of the owner of the NFT"
        }
      }
    },
    "version": 1
  },
  "userdoc": {
    "kind": "user",
    "methods": {
      "balanceOf(address)": {
        "notice": "Count all NFTs assigned to an owner"
      },
      "ownerOf(uint256)": {
        "notice": "Find the owner of an NFT"
      }
    },
    "version": 1
  }
}