{
  "contractName": "KryptoBird",
  "abi": [
    {
      "inputs": [],
      "stateMutability": "nonpayable",
      "type": "constructor"
    },
    {
      "anonymous": false,
      "inputs": [
        {
          "indexed": true,
          "internalType": "address",
          "name": "from",
          "type": "address"
        },
        {
          "indexed": true,
          "internalType": "address",
          "name": "to",
          "type": "address"
        },
        {
          "indexed": true,
          "internalType": "uint256",
          "name": "tokenId",
          "type": "uint256"
        }
      ],
      "name": "Transfer",
      "type": "event"
    },
    {
      "inputs": [
        {
          "internalType": "uint256",
          "name": "",
          "type": "uint256"
        }
      ],
      "name": "kryptoBirdz",
      "outputs": [
        {
          "internalType": "string",
          "name": "",
          "type": "string"
        }
      ],
      "stateMutability": "view",
      "type": "function",
      "constant": true
    },
    {
      "inputs": [],
      "name": "name",
      "outputs": [
        {
          "internalType": "string",
          "name": "",
          "type": "string"
        }
      ],
      "stateMutability": "view",
      "type": "function",
      "constant": true
    },
    {
      "inputs": [],
      "name": "symbol",
      "outputs": [
        {
          "internalType": "string",
          "name": "",
          "type": "string"
        }
      ],
      "stateMutability": "view",
      "type": "function",
      "constant": true
    },
    {
      "inputs": [
        {
          "internalType": "string",
          "name": "_kryptoBird",
          "type": "string"
        }
      ],
      "name": "mint",
      "outputs": [],
      "stateMutability": "nonpayable",
      "type": "function"
    }
  ],
  "bytecode": "0x60806040523480156200001157600080fd5b506040518060400160405280600a81526020017f4b727970746f62697264000000000000000000000000000000000000000000008152506040518060400160405280600581526020017f4b424952440000000000000000000000000000000000000000000000000000008152508181816000908162000091919062000328565b508060019081620000a3919062000328565b50505050506200040f565b600081519050919050565b7f4e487b7100000000000000000000000000000000000000000000000000000000600052604160045260246000fd5b7f4e487b7100000000000000000000000000000000000000000000000000000000600052602260045260246000fd5b600060028204905060018216806200013057607f821691505b602082108103620001465762000145620000e8565b5b50919050565b60008190508160005260206000209050919050565b60006020601f8301049050919050565b600082821b905092915050565b600060088302620001b07fffffffffffffffffffffffffffffffffffffffffffffffffffffffffffffffff8262000171565b620001bc868362000171565b95508019841693508086168417925050509392505050565b6000819050919050565b6000819050919050565b60006200020962000203620001fd84620001d4565b620001de565b620001d4565b9050919050565b6000819050919050565b6200022583620001e8565b6200023d620002348262000210565b8484546200017e565b825550505050565b600090565b6200025462000245565b620002618184846200021a565b505050565b5b8181101562000289576200027d6000826200024a565b60018101905062000267565b5050565b601f821115620002d857620002a2816200014c565b620002ad8462000161565b81016020851015620002bd578190505b620002d5620002cc8562000161565b83018262000266565b50505b505050565b600082821c905092915050565b6000620002fd60001984600802620002dd565b1980831691505092915050565b6000620003188383620002ea565b9150826002028217905092915050565b6200033382620000ae565b67ffffffffffffffff8111156200034f576200034e620000b9565b5b6200035b825462000117565b620003688282856200028d565b600060209050601f831160018114620003a057600084156200038b578287015190505b6200039785826200030a565b86555062000407565b601f198416620003b0866200014c565b60005b82811015620003da57848901518255600182019150602085019450602081019050620003b3565b86831015620003fa5784890151620003f6601f891682620002ea565b8355505b6001600288020188555050505b505050505050565b610e45806200041f6000396000f3fe608060405234801561001057600080fd5b506004361061004c5760003560e01c806306fdde031461005157806393ab6e561461006f57806395d89b411461009f578063d85d3d27146100bd575b600080fd5b6100596100d9565b60405161006691906106a0565b60405180910390f35b6100896004803603810190610084919061070c565b61016b565b60405161009691906106a0565b60405180910390f35b6100a7610217565b6040516100b491906106a0565b60405180910390f35b6100d760048036038101906100d2919061086e565b6102a9565b005b6060600080546100e8906108e6565b80601f0160208091040260200160405190810160405280929190818152602001828054610114906108e6565b80156101615780601f1061013657610100808354040283529160200191610161565b820191906000526020600020905b81548152906001019060200180831161014457829003601f168201915b5050505050905090565b6004818154811061017b57600080fd5b906000526020600020016000915090508054610196906108e6565b80601f01602080910402602001604051908101604052809291908181526020018280546101c2906108e6565b801561020f5780601f106101e45761010080835404028352916020019161020f565b820191906000526020600020905b8154815290600101906020018083116101f257829003601f168201915b505050505081565b606060018054610226906108e6565b80601f0160208091040260200160405190810160405280929190818152602001828054610252906108e6565b801561029f5780601f106102745761010080835404028352916020019161029f565b820191906000526020600020905b81548152906001019060200180831161028257829003601f168201915b5050505050905090565b6005816040516102b99190610953565b908152602001604051809103902060009054906101000a900460ff1615610315576040517f08c379a000000000000000000000000000000000000000000000000000000000815260040161030c906109dc565b60405180910390fd5b6004819080600181540180825580915050600190039060005260206000200160009091909190915090816103499190610ba8565b506000600160048054905061035e9190610ca9565b905061036a33826103a5565b600160058360405161037c9190610953565b908152602001604051809103902060006101000a81548160ff0219169083151502179055505050565b600073ffffffffffffffffffffffffffffffffffffffff168273ffffffffffffffffffffffffffffffffffffffff1603610414576040517f08c379a000000000000000000000000000000000000000000000000000000000815260040161040b90610d4f565b60405180910390fd5b61041d8161059e565b1561045d576040517f08c379a000000000000000000000000000000000000000000000000000000000815260040161045490610dbb565b60405180910390fd5b816002600083815260200190815260200160002060006101000a81548173ffffffffffffffffffffffffffffffffffffffff021916908373ffffffffffffffffffffffffffffffffffffffff1602179055506001600360008473ffffffffffffffffffffffffffffffffffffffff1673ffffffffffffffffffffffffffffffffffffffff168152602001908152602001600020546104fb9190610ddb565b600360008473ffffffffffffffffffffffffffffffffffffffff1673ffffffffffffffffffffffffffffffffffffffff16815260200190815260200160002081905550808273ffffffffffffffffffffffffffffffffffffffff16600073ffffffffffffffffffffffffffffffffffffffff167fddf252ad1be2c89b69c2b068fc378daa952ba7f163c4a11628f55a4df523b3ef60405160405180910390a45050565b6000806002600084815260200190815260200160002060009054906101000a900473ffffffffffffffffffffffffffffffffffffffff169050600073ffffffffffffffffffffffffffffffffffffffff168173ffffffffffffffffffffffffffffffffffffffff161415915050919050565b600081519050919050565b600082825260208201905092915050565b60005b8381101561064a57808201518184015260208101905061062f565b60008484015250505050565b6000601f19601f8301169050919050565b600061067282610610565b61067c818561061b565b935061068c81856020860161062c565b61069581610656565b840191505092915050565b600060208201905081810360008301526106ba8184610667565b905092915050565b6000604051905090565b600080fd5b600080fd5b6000819050919050565b6106e9816106d6565b81146106f457600080fd5b50565b600081359050610706816106e0565b92915050565b600060208284031215610722576107216106cc565b5b6000610730848285016106f7565b91505092915050565b600080fd5b600080fd5b7f4e487b7100000000000000000000000000000000000000000000000000000000600052604160045260246000fd5b61077b82610656565b810181811067ffffffffffffffff8211171561079a57610799610743565b5b80604052505050565b60006107ad6106c2565b90506107b98282610772565b919050565b600067ffffffffffffffff8211156107d9576107d8610743565b5b6107e282610656565b9050602081019050919050565b82818337600083830152505050565b600061081161080c846107be565b6107a3565b90508281526020810184848401111561082d5761082c61073e565b5b6108388482856107ef565b509392505050565b600082601f83011261085557610854610739565b5b81356108658482602086016107fe565b91505092915050565b600060208284031215610884576108836106cc565b5b600082013567ffffffffffffffff8111156108a2576108a16106d1565b5b6108ae84828501610840565b91505092915050565b7f4e487b7100000000000000000000000000000000000000000000000000000000600052602260045260246000fd5b600060028204905060018216806108fe57607f821691505b602082108103610911576109106108b7565b5b50919050565b600081905092915050565b600061092d82610610565b6109378185610917565b935061094781856020860161062c565b80840191505092915050565b600061095f8284610922565b915081905092915050565b7f4572726f72202d204b727970746f4269726420616c726561647920657869737460008201527f7300000000000000000000000000000000000000000000000000000000000000602082015250565b60006109c660218361061b565b91506109d18261096a565b604082019050919050565b600060208201905081810360008301526109f5816109b9565b9050919050565b60008190508160005260206000209050919050565b60006020601f8301049050919050565b600082821b905092915050565b600060088302610a5e7fffffffffffffffffffffffffffffffffffffffffffffffffffffffffffffffff82610a21565b610a688683610a21565b95508019841693508086168417925050509392505050565b6000819050919050565b6000610aa5610aa0610a9b846106d6565b610a80565b6106d6565b9050919050565b6000819050919050565b610abf83610a8a565b610ad3610acb82610aac565b848454610a2e565b825550505050565b600090565b610ae8610adb565b610af3818484610ab6565b505050565b5b81811015610b1757610b0c600082610ae0565b600181019050610af9565b5050565b601f821115610b5c57610b2d816109fc565b610b3684610a11565b81016020851015610b45578190505b610b59610b5185610a11565b830182610af8565b50505b505050565b600082821c905092915050565b6000610b7f60001984600802610b61565b1980831691505092915050565b6000610b988383610b6e565b9150826002028217905092915050565b610bb182610610565b67ffffffffffffffff811115610bca57610bc9610743565b5b610bd482546108e6565b610bdf828285610b1b565b600060209050601f831160018114610c125760008415610c00578287015190505b610c0a8582610b8c565b865550610c72565b601f198416610c20866109fc565b60005b82811015610c4857848901518255600182019150602085019450602081019050610c23565b86831015610c655784890151610c61601f891682610b6e565b8355505b6001600288020188555050505b505050505050565b7f4e487b7100000000000000000000000000000000000000000000000000000000600052601160045260246000fd5b6000610cb4826106d6565b9150610cbf836106d6565b9250828203905081811115610cd757610cd6610c7a565b5b92915050565b7f455243373632313a206d696e74696e6720746f20746865207a65726f2061646460008201527f7265737300000000000000000000000000000000000000000000000000000000602082015250565b6000610d3960248361061b565b9150610d4482610cdd565b604082019050919050565b60006020820190508181036000830152610d6881610d2c565b9050919050565b7f45524337323120746f6b656e20616c7265616479206d696e7465640000000000600082015250565b6000610da5601b8361061b565b9150610db082610d6f565b602082019050919050565b60006020820190508181036000830152610dd481610d98565b9050919050565b6000610de6826106d6565b9150610df1836106d6565b9250828201905080821115610e0957610e08610c7a565b5b9291505056fea2646970667358221220911edae13937ce5423361218912b624d5fa02c67b185c9e9eed15d3ee456136064736f6c63430008110033",
  "immutableReferences": {},
  "source": "// SPDX-License-Identifier: MIT\r\npragma solidity ^0.8.8;\r\nimport './ERC721Connector.sol';\r\ncontract KryptoBird is ERC721Connector {\r\n\r\n    constructor () ERC721Connector(\"Kryptobird\", \"KBIRD\") {\r\n    }\r\n    string[] public kryptoBirdz;\r\n    mapping(string => bool) _kryptoBirdzExists;\r\n    function mint(string memory _kryptoBird) public {\r\n        require(!_kryptoBirdzExists[_kryptoBird], 'Error - KryptoBird already exists');\r\n        kryptoBirdz.push(_kryptoBird);\r\n        uint _id = kryptoBirdz.length - 1;\r\n        _mint(msg.sender, _id);\r\n        _kryptoBirdzExists[_kryptoBird] = true;\r\n    }\r\n}\r\n",
  "sourcePath": "D:\\repo\\nft-marketplace-starter-kit-main\\src\\contracts\\KryptoBirdz.sol",
  "compiler": {
    "name": "solc",
    "version": "0.8.17+commit.8df45f5f.Emscripten.clang"
  },
  "schemaVersion": "3.4.11",
  "updatedAt": "2023-01-13T11:41:13.444Z",
  "networkType": "ethereum",
  "devdoc": {
    "kind": "dev",
    "methods": {},
    "version": 1
  },
  "userdoc": {
    "kind": "user",
    "methods": {},
    "version": 1
  }
}