{
  "contractName": "KryptoBird",
  "abi": [
    {
      "inputs": [],
      "stateMutability": "nonpayable",
      "type": "constructor"
    },
    {
      "anonymous": false,
      "inputs": [
        {
          "indexed": true,
          "internalType": "address",
          "name": "from",
          "type": "address"
        },
        {
          "indexed": true,
          "internalType": "address",
          "name": "to",
          "type": "address"
        },
        {
          "indexed": true,
          "internalType": "uint256",
          "name": "tokenId",
          "type": "uint256"
        }
      ],
      "name": "Transfer",
      "type": "event"
    },
    {
      "inputs": [
        {
          "internalType": "address",
          "name": "owner",
          "type": "address"
        }
      ],
      "name": "balanceOf",
      "outputs": [
        {
          "internalType": "uint256",
          "name": "",
          "type": "uint256"
        }
      ],
      "stateMutability": "view",
      "type": "function",
      "constant": true
    },
    {
      "inputs": [
        {
          "internalType": "uint256",
          "name": "",
          "type": "uint256"
        }
      ],
      "name": "kryptoBirdz",
      "outputs": [
        {
          "internalType": "string",
          "name": "",
          "type": "string"
        }
      ],
      "stateMutability": "view",
      "type": "function",
      "constant": true
    },
    {
      "inputs": [],
      "name": "name",
      "outputs": [
        {
          "internalType": "string",
          "name": "",
          "type": "string"
        }
      ],
      "stateMutability": "view",
      "type": "function",
      "constant": true
    },
    {
      "inputs": [
        {
          "internalType": "uint256",
          "name": "tokenId",
          "type": "uint256"
        }
      ],
      "name": "ownerOf",
      "outputs": [
        {
          "internalType": "address",
          "name": "",
          "type": "address"
        }
      ],
      "stateMutability": "view",
      "type": "function",
      "constant": true
    },
    {
      "inputs": [],
      "name": "symbol",
      "outputs": [
        {
          "internalType": "string",
          "name": "",
          "type": "string"
        }
      ],
      "stateMutability": "view",
      "type": "function",
      "constant": true
    },
    {
      "inputs": [
        {
          "internalType": "uint256",
          "name": "index",
          "type": "uint256"
        }
      ],
      "name": "tokenByIndex",
      "outputs": [
        {
          "internalType": "uint256",
          "name": "",
          "type": "uint256"
        }
      ],
      "stateMutability": "view",
      "type": "function",
      "constant": true
    },
    {
      "inputs": [
        {
          "internalType": "address",
          "name": "owner",
          "type": "address"
        },
        {
          "internalType": "uint256",
          "name": "index",
          "type": "uint256"
        }
      ],
      "name": "tokenOfOwnerByIndex",
      "outputs": [
        {
          "internalType": "uint256",
          "name": "",
          "type": "uint256"
        }
      ],
      "stateMutability": "view",
      "type": "function",
      "constant": true
    },
    {
      "inputs": [],
      "name": "totalSupply",
      "outputs": [
        {
          "internalType": "uint256",
          "name": "",
          "type": "uint256"
        }
      ],
      "stateMutability": "view",
      "type": "function",
      "constant": true
    },
    {
      "inputs": [
        {
          "internalType": "address",
          "name": "from",
          "type": "address"
        },
        {
          "internalType": "address",
          "name": "to",
          "type": "address"
        },
        {
          "internalType": "uint256",
          "name": "tokenId",
          "type": "uint256"
        }
      ],
      "name": "transferFrom",
      "outputs": [],
      "stateMutability": "nonpayable",
      "type": "function"
    },
    {
      "inputs": [
        {
          "internalType": "string",
          "name": "_kryptoBird",
          "type": "string"
        }
      ],
      "name": "mint",
      "outputs": [],
      "stateMutability": "nonpayable",
      "type": "function"
    }
  ],
  "bytecode": "0x60806040523480156200001157600080fd5b506040518060400160405280600a81526020017f4b727970746f62697264000000000000000000000000000000000000000000008152506040518060400160405280600581526020017f4b424952440000000000000000000000000000000000000000000000000000008152508181816000908162000091919062000328565b508060019081620000a3919062000328565b50505050506200040f565b600081519050919050565b7f4e487b7100000000000000000000000000000000000000000000000000000000600052604160045260246000fd5b7f4e487b7100000000000000000000000000000000000000000000000000000000600052602260045260246000fd5b600060028204905060018216806200013057607f821691505b602082108103620001465762000145620000e8565b5b50919050565b60008190508160005260206000209050919050565b60006020601f8301049050919050565b600082821b905092915050565b600060088302620001b07fffffffffffffffffffffffffffffffffffffffffffffffffffffffffffffffff8262000171565b620001bc868362000171565b95508019841693508086168417925050509392505050565b6000819050919050565b6000819050919050565b60006200020962000203620001fd84620001d4565b620001de565b620001d4565b9050919050565b6000819050919050565b6200022583620001e8565b6200023d620002348262000210565b8484546200017e565b825550505050565b600090565b6200025462000245565b620002618184846200021a565b505050565b5b8181101562000289576200027d6000826200024a565b60018101905062000267565b5050565b601f821115620002d857620002a2816200014c565b620002ad8462000161565b81016020851015620002bd578190505b620002d5620002cc8562000161565b83018262000266565b50505b505050565b600082821c905092915050565b6000620002fd60001984600802620002dd565b1980831691505092915050565b6000620003188383620002ea565b9150826002028217905092915050565b6200033382620000ae565b67ffffffffffffffff8111156200034f576200034e620000b9565b5b6200035b825462000117565b620003688282856200028d565b600060209050601f831160018114620003a057600084156200038b578287015190505b6200039785826200030a565b86555062000407565b601f198416620003b0866200014c565b60005b82811015620003da57848901518255600182019150602085019450602081019050620003b3565b86831015620003fa5784890151620003f6601f891682620002ea565b8355505b6001600288020188555050505b505050505050565b611b2b806200041f6000396000f3fe608060405234801561001057600080fd5b506004361061009e5760003560e01c80636352211e116100665780636352211e1461015b57806370a082311461018b57806393ab6e56146101bb57806395d89b41146101eb578063d85d3d27146102095761009e565b806306fdde03146100a357806318160ddd146100c157806323b872dd146100df5780632f745c59146100fb5780634f6ccce71461012b575b600080fd5b6100ab610225565b6040516100b89190610eeb565b60405180910390f35b6100c96102b7565b6040516100d69190610f26565b60405180910390f35b6100f960048036038101906100f49190610fdf565b6102c4565b005b61011560048036038101906101109190611032565b6102d4565b6040516101229190610f26565b60405180910390f35b61014560048036038101906101409190611072565b610384565b6040516101529190610f26565b60405180910390f35b61017560048036038101906101709190611072565b6103f5565b60405161018291906110ae565b60405180910390f35b6101a560048036038101906101a091906110c9565b61051c565b6040516101b29190610f26565b60405180910390f35b6101d560048036038101906101d09190611072565b6105d3565b6040516101e29190610eeb565b60405180910390f35b6101f361067f565b6040516102009190610eeb565b60405180910390f35b610223600480360381019061021e919061122b565b610711565b005b606060008054610234906112a3565b80601f0160208091040260200160405190810160405280929190818152602001828054610260906112a3565b80156102ad5780601f10610282576101008083540402835291602001916102ad565b820191906000526020600020905b81548152906001019060200180831161029057829003601f168201915b5050505050905090565b6000600580549050905090565b6102cf83838361080d565b505050565b60006102df8361051c565b8210610320576040517f08c379a000000000000000000000000000000000000000000000000000000000815260040161031790611320565b60405180910390fd5b600760008473ffffffffffffffffffffffffffffffffffffffff1673ffffffffffffffffffffffffffffffffffffffff168152602001908152602001600020828154811061037157610370611340565b5b9060005260206000200154905092915050565b600061038e6102b7565b82106103cf576040517f08c379a00000000000000000000000000000000000000000000000000000000081526004016103c6906113bb565b60405180910390fd5b600582815481106103e3576103e2611340565b5b90600052602060002001549050919050565b600061040082610ac2565b61043f576040517f08c379a000000000000000000000000000000000000000000000000000000000815260040161043690611427565b60405180910390fd5b600073ffffffffffffffffffffffffffffffffffffffff166002600084815260200190815260200160002060009054906101000a900473ffffffffffffffffffffffffffffffffffffffff1673ffffffffffffffffffffffffffffffffffffffff16036104e1576040517f08c379a00000000000000000000000000000000000000000000000000000000081526004016104d8906114b9565b60405180910390fd5b6002600083815260200190815260200160002060009054906101000a900473ffffffffffffffffffffffffffffffffffffffff169050919050565b60008073ffffffffffffffffffffffffffffffffffffffff168273ffffffffffffffffffffffffffffffffffffffff160361058c576040517f08c379a0000000000000000000000000000000000000000000000000000000008152600401610583906114b9565b60405180910390fd5b600360008373ffffffffffffffffffffffffffffffffffffffff1673ffffffffffffffffffffffffffffffffffffffff168152602001908152602001600020549050919050565b600981815481106105e357600080fd5b9060005260206000200160009150905080546105fe906112a3565b80601f016020809104026020016040519081016040528092919081815260200182805461062a906112a3565b80156106775780601f1061064c57610100808354040283529160200191610677565b820191906000526020600020905b81548152906001019060200180831161065a57829003601f168201915b505050505081565b60606001805461068e906112a3565b80601f01602080910402602001604051908101604052809291908181526020018280546106ba906112a3565b80156107075780601f106106dc57610100808354040283529160200191610707565b820191906000526020600020905b8154815290600101906020018083116106ea57829003601f168201915b5050505050905090565b600a816040516107219190611515565b908152602001604051809103902060009054906101000a900460ff161561077d576040517f08c379a00000000000000000000000000000000000000000000000000000000081526004016107749061159e565b60405180910390fd5b6009819080600181540180825580915050600190039060005260206000200160009091909190915090816107b1919061176a565b50600060016009805490506107c6919061186b565b90506107d23382610b34565b6001600a836040516107e49190611515565b908152602001604051809103902060006101000a81548160ff0219169083151502179055505050565b600073ffffffffffffffffffffffffffffffffffffffff168273ffffffffffffffffffffffffffffffffffffffff160361087c576040517f08c379a000000000000000000000000000000000000000000000000000000000815260040161087390611911565b60405180910390fd5b8273ffffffffffffffffffffffffffffffffffffffff1661089c826103f5565b73ffffffffffffffffffffffffffffffffffffffff16146108f2576040517f08c379a00000000000000000000000000000000000000000000000000000000081526004016108e9906119a3565b60405180910390fd5b816002600083815260200190815260200160002060006101000a81548173ffffffffffffffffffffffffffffffffffffffff021916908373ffffffffffffffffffffffffffffffffffffffff1602179055506001600360008573ffffffffffffffffffffffffffffffffffffffff1673ffffffffffffffffffffffffffffffffffffffff16815260200190815260200160002054610990919061186b565b600360008573ffffffffffffffffffffffffffffffffffffffff1673ffffffffffffffffffffffffffffffffffffffff168152602001908152602001600020819055506001600360008473ffffffffffffffffffffffffffffffffffffffff1673ffffffffffffffffffffffffffffffffffffffff16815260200190815260200160002054610a1f91906119c3565b600360008473ffffffffffffffffffffffffffffffffffffffff1673ffffffffffffffffffffffffffffffffffffffff16815260200190815260200160002081905550808273ffffffffffffffffffffffffffffffffffffffff168473ffffffffffffffffffffffffffffffffffffffff167fddf252ad1be2c89b69c2b068fc378daa952ba7f163c4a11628f55a4df523b3ef60405160405180910390a4505050565b6000806002600084815260200190815260200160002060009054906101000a900473ffffffffffffffffffffffffffffffffffffffff169050600073ffffffffffffffffffffffffffffffffffffffff168173ffffffffffffffffffffffffffffffffffffffff161415915050919050565b610b3e8282610b55565b610b4781610d4e565b610b518183610d97565b5050565b600073ffffffffffffffffffffffffffffffffffffffff168273ffffffffffffffffffffffffffffffffffffffff1603610bc4576040517f08c379a0000000000000000000000000000000000000000000000000000000008152600401610bbb90611a69565b60405180910390fd5b610bcd81610ac2565b15610c0d576040517f08c379a0000000000000000000000000000000000000000000000000000000008152600401610c0490611ad5565b60405180910390fd5b816002600083815260200190815260200160002060006101000a81548173ffffffffffffffffffffffffffffffffffffffff021916908373ffffffffffffffffffffffffffffffffffffffff1602179055506001600360008473ffffffffffffffffffffffffffffffffffffffff1673ffffffffffffffffffffffffffffffffffffffff16815260200190815260200160002054610cab91906119c3565b600360008473ffffffffffffffffffffffffffffffffffffffff1673ffffffffffffffffffffffffffffffffffffffff16815260200190815260200160002081905550808273ffffffffffffffffffffffffffffffffffffffff16600073ffffffffffffffffffffffffffffffffffffffff167fddf252ad1be2c89b69c2b068fc378daa952ba7f163c4a11628f55a4df523b3ef60405160405180910390a45050565b6005805490506006600083815260200190815260200160002081905550600581908060018154018082558091505060019003906000526020600020016000909190919091505550565b600760008273ffffffffffffffffffffffffffffffffffffffff1673ffffffffffffffffffffffffffffffffffffffff168152602001908152602001600020805490506008600084815260200190815260200160002081905550600760008273ffffffffffffffffffffffffffffffffffffffff1673ffffffffffffffffffffffffffffffffffffffff1681526020019081526020016000208290806001815401808255809150506001900390600052602060002001600090919091909150555050565b600081519050919050565b600082825260208201905092915050565b60005b83811015610e95578082015181840152602081019050610e7a565b60008484015250505050565b6000601f19601f8301169050919050565b6000610ebd82610e5b565b610ec78185610e66565b9350610ed7818560208601610e77565b610ee081610ea1565b840191505092915050565b60006020820190508181036000830152610f058184610eb2565b905092915050565b6000819050919050565b610f2081610f0d565b82525050565b6000602082019050610f3b6000830184610f17565b92915050565b6000604051905090565b600080fd5b600080fd5b600073ffffffffffffffffffffffffffffffffffffffff82169050919050565b6000610f8082610f55565b9050919050565b610f9081610f75565b8114610f9b57600080fd5b50565b600081359050610fad81610f87565b92915050565b610fbc81610f0d565b8114610fc757600080fd5b50565b600081359050610fd981610fb3565b92915050565b600080600060608486031215610ff857610ff7610f4b565b5b600061100686828701610f9e565b935050602061101786828701610f9e565b925050604061102886828701610fca565b9150509250925092565b6000806040838503121561104957611048610f4b565b5b600061105785828601610f9e565b925050602061106885828601610fca565b9150509250929050565b60006020828403121561108857611087610f4b565b5b600061109684828501610fca565b91505092915050565b6110a881610f75565b82525050565b60006020820190506110c3600083018461109f565b92915050565b6000602082840312156110df576110de610f4b565b5b60006110ed84828501610f9e565b91505092915050565b600080fd5b600080fd5b7f4e487b7100000000000000000000000000000000000000000000000000000000600052604160045260246000fd5b61113882610ea1565b810181811067ffffffffffffffff8211171561115757611156611100565b5b80604052505050565b600061116a610f41565b9050611176828261112f565b919050565b600067ffffffffffffffff82111561119657611195611100565b5b61119f82610ea1565b9050602081019050919050565b82818337600083830152505050565b60006111ce6111c98461117b565b611160565b9050828152602081018484840111156111ea576111e96110fb565b5b6111f58482856111ac565b509392505050565b600082601f830112611212576112116110f6565b5b81356112228482602086016111bb565b91505092915050565b60006020828403121561124157611240610f4b565b5b600082013567ffffffffffffffff81111561125f5761125e610f50565b5b61126b848285016111fd565b91505092915050565b7f4e487b7100000000000000000000000000000000000000000000000000000000600052602260045260246000fd5b600060028204905060018216806112bb57607f821691505b6020821081036112ce576112cd611274565b5b50919050565b7f6f776e657220696e646578206973206f7574206f6620626f756e640000000000600082015250565b600061130a601b83610e66565b9150611315826112d4565b602082019050919050565b60006020820190508181036000830152611339816112fd565b9050919050565b7f4e487b7100000000000000000000000000000000000000000000000000000000600052603260045260246000fd5b7f676c6f62616c20696e646578206973206f7574206f6620626f756e6400000000600082015250565b60006113a5601c83610e66565b91506113b08261136f565b602082019050919050565b600060208201905081810360008301526113d481611398565b9050919050565b7f746f6b656e20646f6573206e6f74206578697374730000000000000000000000600082015250565b6000611411601583610e66565b915061141c826113db565b602082019050919050565b6000602082019050818103600083015261144081611404565b9050919050565b7f6f776e657220717565727920666f72206e6f6e2d6578697374696e672061646460008201527f7265737300000000000000000000000000000000000000000000000000000000602082015250565b60006114a3602483610e66565b91506114ae82611447565b604082019050919050565b600060208201905081810360008301526114d281611496565b9050919050565b600081905092915050565b60006114ef82610e5b565b6114f981856114d9565b9350611509818560208601610e77565b80840191505092915050565b600061152182846114e4565b915081905092915050565b7f4572726f72202d204b727970746f4269726420616c726561647920657869737460008201527f7300000000000000000000000000000000000000000000000000000000000000602082015250565b6000611588602183610e66565b91506115938261152c565b604082019050919050565b600060208201905081810360008301526115b78161157b565b9050919050565b60008190508160005260206000209050919050565b60006020601f8301049050919050565b600082821b905092915050565b6000600883026116207fffffffffffffffffffffffffffffffffffffffffffffffffffffffffffffffff826115e3565b61162a86836115e3565b95508019841693508086168417925050509392505050565b6000819050919050565b600061166761166261165d84610f0d565b611642565b610f0d565b9050919050565b6000819050919050565b6116818361164c565b61169561168d8261166e565b8484546115f0565b825550505050565b600090565b6116aa61169d565b6116b5818484611678565b505050565b5b818110156116d9576116ce6000826116a2565b6001810190506116bb565b5050565b601f82111561171e576116ef816115be565b6116f8846115d3565b81016020851015611707578190505b61171b611713856115d3565b8301826116ba565b50505b505050565b600082821c905092915050565b600061174160001984600802611723565b1980831691505092915050565b600061175a8383611730565b9150826002028217905092915050565b61177382610e5b565b67ffffffffffffffff81111561178c5761178b611100565b5b61179682546112a3565b6117a18282856116dd565b600060209050601f8311600181146117d457600084156117c2578287015190505b6117cc858261174e565b865550611834565b601f1984166117e2866115be565b60005b8281101561180a578489015182556001820191506020850194506020810190506117e5565b868310156118275784890151611823601f891682611730565b8355505b6001600288020188555050505b505050505050565b7f4e487b7100000000000000000000000000000000000000000000000000000000600052601160045260246000fd5b600061187682610f0d565b915061188183610f0d565b92508282039050818111156118995761189861183c565b5b92915050565b7f4552433732313a204572726f72202d205472616e7366657220746f207468652060008201527f7a65726f20616464726573730000000000000000000000000000000000000000602082015250565b60006118fb602c83610e66565b91506119068261189f565b604082019050919050565b6000602082019050818103600083015261192a816118ee565b9050919050565b7f547279696e6720746f207472616e73666572206120746f6b656e20746865206160008201527f64647265737320646f6573206e6f74206f776e00000000000000000000000000602082015250565b600061198d603383610e66565b915061199882611931565b604082019050919050565b600060208201905081810360008301526119bc81611980565b9050919050565b60006119ce82610f0d565b91506119d983610f0d565b92508282019050808211156119f1576119f061183c565b5b92915050565b7f455243373632313a206d696e74696e6720746f20746865207a65726f2061646460008201527f7265737300000000000000000000000000000000000000000000000000000000602082015250565b6000611a53602483610e66565b9150611a5e826119f7565b604082019050919050565b60006020820190508181036000830152611a8281611a46565b9050919050565b7f45524337323120746f6b656e20616c7265616479206d696e7465640000000000600082015250565b6000611abf601b83610e66565b9150611aca82611a89565b602082019050919050565b60006020820190508181036000830152611aee81611ab2565b905091905056fea264697066735822122067794c337ffbdbd82160f6110c8144bc2bf51e3bd9da834f0615805c9655370b64736f6c63430008110033",
  "immutableReferences": {},
  "source": "// SPDX-License-Identifier: MIT\r\npragma solidity ^0.8.8;\r\nimport './ERC721Connector.sol';\r\ncontract KryptoBird is ERC721Connector {\r\n\r\n    constructor () ERC721Connector(\"Kryptobird\", \"KBIRD\") {\r\n    }\r\n    string[] public kryptoBirdz;\r\n    mapping(string => bool) _kryptoBirdzExists;\r\n    function mint(string memory _kryptoBird) public {\r\n        require(!_kryptoBirdzExists[_kryptoBird], 'Error - KryptoBird already exists');\r\n        kryptoBirdz.push(_kryptoBird);\r\n        uint _id = kryptoBirdz.length - 1;\r\n        _mint(msg.sender, _id);\r\n        _kryptoBirdzExists[_kryptoBird] = true;\r\n    }\r\n}\r\n",
  "sourcePath": "D:\\repo\\nft-marketplace-starter-kit-main\\src\\contracts\\KryptoBirdz.sol",
  "compiler": {
    "name": "solc",
    "version": "0.8.17+commit.8df45f5f.Emscripten.clang"
  },
  "schemaVersion": "3.4.11",
  "updatedAt": "2023-01-30T08:55:17.779Z",
  "networkType": "ethereum",
  "devdoc": {
    "kind": "dev",
    "methods": {
      "balanceOf(address)": {
        "details": "NFTs assigned to the zero address are considered invalid, and this  function throws for queries about the zero address.",
        "params": {
          "owner": "An address for whom to query the balance"
        },
        "returns": {
          "_0": "The number of NFTs owned by `_owner`, possibly zero"
        }
      },
      "ownerOf(uint256)": {
        "details": "NFTs assigned to zero address are considered invalid, and queries  about them do throw.",
        "params": {
          "tokenId": "The identifier for an NFT"
        },
        "returns": {
          "_0": "The address of the owner of the NFT"
        }
      }
    },
    "version": 1
  },
  "userdoc": {
    "kind": "user",
    "methods": {
      "balanceOf(address)": {
        "notice": "Count all NFTs assigned to an owner"
      },
      "ownerOf(uint256)": {
        "notice": "Find the owner of an NFT"
      }
    },
    "version": 1
  }
}